:020000040000fa
:080000000002040000000000f2
:020000040000fa
:040008007a03000077
:020000040000fa
:04000c008c03000061
:020000040000fa
:040010009c0300004d
:020000040000fa
:040014008203000063
:020000040000fa
:04001800940300004d
:020000040000fa
:04001c00b00500002b
:020000040000fa
:04002000a403000035
:020000040000fa
:04002400b005000023
:020000040000fa
:04002800b00500001f
:020000040000fa
:04002c005603000077
:020000040000fa
:04003000b005000017
:020000040000fa
:04003400b005000013
:020000040000fa
:04003800b00500000f
:020000040000fa
:04003c00b00500000b
:020000040000fa
:040040003405000083
:020000040000fa
:04004400460500006d
:020000040000fa
:04004800b0050000ff
:020000040000fa
:04004c00b0050000fb
:020000040000fa
:04005000b0050000f7
:020000040000fa
:04005400080400009c
:020000040000fa
:04005800ac030000f5
:020000040000fa
:04005c00b0050000eb
:020000040000fa
:04006000b0050000e7
:020000040000fa
:04006400b0050000e3
:020000040000fa
:04006800b0050000df
:020000040000fa
:04006c00b0050000db
:020000040000fa
:04007000b0050000d7
:020000040000fa
:04007400b0050000d3
:020000040000fa
:04007800b0050000cf
:020000040000fa
:04007c00b0050000cb
:020000040000fa
:04008000b0050000c7
:020000040000fa
:04008400b0050000c3
:020000040000fa
:04008800b0050000bf
:020000040000fa
:04008c00b0050000bb
:020000040000fa
:04009000b0050000b7
:020000040000fa
:04009400c4040000a0
:020000040000fa
:0400980064040000fc
:020000040000fa
:04009c00b0050000ab
:020000040000fa
:0400a000b0050000a7
:020000040000fa
:0400a400b0050000a3
:020000040000fa
:0400a800b00500009f
:020000040000fa
:0400ac00b00500009b
:020000040000fa
:0400b000b005000097
:020000040000fa
:0400b400b005000093
:020000040000fa
:0400b800b00500008f
:020000040000fa
:0400bc00b00500008b
:020000040000fa
:0400c000b005000087
:020000040000fa
:0400c400b005000083
:020000040000fa
:0400c800b00500007f
:020000040000fa
:0400cc00b00500007b
:020000040000fa
:0400d000b005000077
:020000040000fa
:0400d400b005000073
:020000040000fa
:0400d800b00500006f
:020000040000fa
:0400dc00b00500006b
:020000040000fa
:0400e000b005000067
:020000040000fa
:0400e400b005000063
:020000040000fa
:0400e800b00500005f
:020000040000fa
:0400ec0056040000b6
:020000040000fa
:0400f00014050000f3
:020000040000fa
:0400f400b005000053
:020000040000fa
:0400f800b00500004f
:020000040000fa
:0400fc00b00500004b
:020000040000fa
:04010000b005000046
:020000040000fa
:04010400b005000042
:020000040000fa
:04010800b00500003e
:020000040000fa
:04010c00b00500003a
:020000040000fa
:04011000b005000036
:020000040000fa
:04011400b005000032
:020000040000fa
:04011800b00500002e
:020000040000fa
:04011c00b00500002a
:020000040000fa
:04012000b005000026
:020000040000fa
:04012400b005000022
:020000040000fa
:04012800b00500001e
:020000040000fa
:04012c00b00500001a
:020000040000fa
:04013000b005000016
:020000040000fa
:04013400b005000012
:020000040000fa
:04013800b00500000e
:020000040000fa
:04013c00b00500000a
:020000040000fa
:04014000b005000006
:020000040000fa
:04014400b005000002
:020000040000fa
:04014800b0050000fe
:020000040000fa
:04014c00b0050000fa
:020000040000fa
:04015000b0050000f6
:020000040000fa
:04015400b0050000f2
:020000040000fa
:04015800b0050000ee
:020000040000fa
:04015c00b0050000ea
:020000040000fa
:04016000b0050000e6
:020000040000fa
:04016400b0050000e2
:020000040000fa
:04016800b0050000de
:020000040000fa
:04016c00b0050000da
:020000040000fa
:04017000b0050000d6
:020000040000fa
:04017400b0050000d2
:020000040000fa
:04017800b0050000ce
:020000040000fa
:04017c00b0050000ca
:020000040000fa
:04018000b0050000c6
:020000040000fa
:04018400b0050000c2
:020000040000fa
:04018800b0050000be
:020000040000fa
:04018c00b0050000ba
:020000040000fa
:04019000b0050000b6
:020000040000fa
:04019400b0050000b2
:020000040000fa
:04019800b0050000ae
:020000040000fa
:04019c00b0050000aa
:020000040000fa
:0401a000b0050000a6
:020000040000fa
:0401a400b0050000a2
:020000040000fa
:0401a800b00500009e
:020000040000fa
:0401ac00b00500009a
:020000040000fa
:0401b000b005000096
:020000040000fa
:0401b400b005000092
:020000040000fa
:0401b800b00500008e
:020000040000fa
:0401bc00b00500008a
:020000040000fa
:0401c000b005000086
:020000040000fa
:0401c400b005000082
:020000040000fa
:0401c8002a03000006
:020000040000fa
:0401cc00b00500007a
:020000040000fa
:0401d000b005000076
:020000040000fa
:0401d400b005000072
:020000040000fa
:0401d800b00500006e
:020000040000fa
:0401dc00fe0200001f
:020000040000fa
:0401e000b005000066
:020000040000fa
:0401e400b005000062
:020000040000fa
:0401e800b00500005e
:020000040000fa
:0401ec00b00500005a
:020000040000fa
:0401f000b005000056
:020000040000fa
:0401f400b005000052
:020000040000fa
:0401f800b00500004e
:020000040000fa
:0401fc00b00500004a
:020000040000fa
:04020000b005000045
:020000040000fa
:04020400b005000041
:020000040000fa
:04020800b00500003d
:020000040000fa
:04020c00b005000039
:020000040000fa
:04021000b005000035
:020000040000fa
:04021400b005000031
:020000040000fa
:04021800b00500002d
:020000040000fa
:04021c00b005000029
:020000040000fa
:04022000b005000025
:020000040000fa
:04022400b005000021
:020000040000fa
:04022800b00500001d
:020000040000fa
:04022c00b005000019
:020000040000fa
:04023000b005000015
:020000040000fa
:04023400b005000011
:020000040000fa
:04023800b00500000d
:020000040000fa
:04023c00b005000009
:020000040000fa
:04024000b005000005
:020000040000fa
:04024400b005000001
:020000040000fa
:04024800b0050000fd
:020000040000fa
:04024c00b0050000f9
:020000040000fa
:04025000b0050000f5
:020000040000fa
:04025400b0050000f1
:020000040000fa
:04025800b0050000ed
:020000040000fa
:04025c00b0050000e9
:020000040000fa
:04026000b0050000e5
:020000040000fa
:04026400b0050000e1
:020000040000fa
:04026800b0050000dd
:020000040000fa
:04026c00b0050000d9
:020000040000fa
:04027000b0050000d5
:020000040000fa
:04027400b0050000d1
:020000040000fa
:04027800b0050000cd
:020000040000fa
:04027c00b0050000c9
:020000040000fa
:04028000b0050000c5
:020000040000fa
:04028400b0050000c1
:020000040000fa
:04028800b0050000bd
:020000040000fa
:04028c00b0050000b9
:020000040000fa
:04029000b0050000b5
:020000040000fa
:04029400b0050000b1
:020000040000fa
:04029800b0050000ad
:020000040000fa
:04029c00b0050000a9
:020000040000fa
:0402a000b0050000a5
:020000040000fa
:0402a400b0050000a1
:020000040000fa
:0402a800b00500009d
:020000040000fa
:0402ac00b005000099
:020000040000fa
:0402b000b005000095
:020000040000fa
:0402b400b005000091
:020000040000fa
:0402b800b00500008d
:020000040000fa
:0402bc00b005000089
:020000040000fa
:0402c000b005000085
:020000040000fa
:0402c400b005000081
:020000040000fa
:0402c800b00500007d
:020000040000fa
:0402cc00b005000079
:020000040000fa
:0402d000b005000075
:020000040000fa
:0402d400b005000071
:020000040000fa
:0402d800b00500006d
:020000040000fa
:0402dc00b005000069
:020000040000fa
:0402e000b005000065
:020000040000fa
:0402e400b005000061
:020000040000fa
:0402e800b00500005d
:020000040000fa
:0402ec00b005000059
:020000040000fa
:0402f000b005000055
:020000040000fa
:0402f400b005000051
:020000040000fa
:0402f800b00500004d
:020000040000fa
:0402fc00b005000049
:020000040000fa
:04030000b005000044
:020000040000fa
:04030400b005000040
:020000040000fa
:04030800b00500003c
:020000040000fa
:04030c00b005000038
:020000040000fa
:04031000b005000034
:020000040000fa
:04031400b005000030
:020000040000fa
:04031800b00500002c
:020000040000fa
:04031c006004000079
:020000040000fa
:040320001e050000b6
:020000040000fa
:04032400b005000020
:020000040000fa
:04032800b00500001c
:020000040000fa
:04032c00b005000018
:020000040000fa
:100400006f1d21000efe26000e0188000000000076
:10041000000020000000e000020032000001200087
:100420002002880014000700cf0107000000e00050
:1004300003003a0060c822000100200002003700db
:100440000000200001002000810f70000100320038
:100450000f000700000020000000e0000200320052
:10046000000002000000000008250200000000005b
:100470000040da000000fe00202620000000e0001e
:1004800002003200002020009001880000000600d9
:10049000a1028800800478000000eb001f003700f4
:1004a000e284440054a0b4009905ba00e2844400f8
:1004b00054a0b4009906ba00e284440054a0b400e9
:1004c0000006eb00476fde00fd07b200ae018800ba
:1004d000636ce10003003a000ad801000000eb0061
:1004e0000e003700606ce10008003a00004deb00a0
:1004f0000a05e800020039003420ec000af0a000f0
:100500008b05e900f9ff3e00040037006168e10057
:10051000010032000086eb000b00070019c7ba008b
:100520001905ba000e04e00003003a000a00e000da
:10053000dbff3a0000000600fe07b200ae028800b2
:100540008a047800f5ff37000cd0a300e20f4d00bd
:100550001c00390089027800354dba000a05e80010
:10056000020039003420ec000af0a0008b05e900fd
:100570000f003200254dba000a05e80002003900dc
:100580003420ec000af0a0008b05e90008003200de
:100590000c00e0000600320015cdba000a05e800a4
:1005a000020039003420ec000af0a0008b05e900bd
:1005b0008984e80054a0b4000b00e000e2ff3a0098
:1005c000000006009902ba00055d78008b05e9007d
:1005d000f7ff3200c82ade00055d78008b05e900d0
:1005e000f3ff32000c00e000f1ff320019ddba0029
:1005f000eeff3700d6080400000000003600f800c7
:10060000809fbe00829fbe00849fbe00869fbe006a
:100610003200f8003400f80010002000a00188002b
:10062000002020009001880080618000c112070036
:100630000da8a9003400f9003200f9004f03be00f4
:100640004f02be004f01be004f00be003600f90051
:10065000004006003600f800809fbe00829fbe006a
:10066000849fbe00869fbe003200f8003400f80070
:1006700010002000a00188000020200090018800c8
:1006800030618000971207000d08a9003400f900be
:100690003200f9004f03be004f02be004f01be0002
:1006a0004f00be003600f900004006003600f8009a
:1006b000809fbe00829fbe00849fbe00869fbe00ba
:1006c000df0f0700301d21001048e80011c0b30003
:1006d0000000e900014878000028a9004f03be008f
:1006e0004f02be004f01be004f00be003600f900b1
:1006f000004006003600f800c028a9000000eb000a
:10070000ae1907003600f800a7190700c048a90075
:1007100010002000a91907003600f800c068a900e1
:1007200020002000a51907003600f800c088a900a5
:1007300030002000a11907003600f800c608a90003
:10074000700020009d1907003600f800c408a900b9
:10075000b000200099190700809fbe00829fbe0054
:10076000841f780000202000011c2100110060007f
:10077000020032002188a900210037000188a90069
:10078000e38d8000f08d8000018e800088810a005a
:1007900001000000d20221000042eb000f003700f0
:1007a000b080fb0041128800820f500001003a0027
:1007b000c0022100808f510007003a00f08d8800b0
:1007c000001c2100900078000180a1000190a00091
:1007d000010878000a003700844078003e82ab00b0
:1007e000efff3200f08d8800001c2100e1806000e6
:1007f000c808dd00100178000280a1000108710026
:100800004f0278004f01be004f00be0000400600be
:10081000809fbe00829fbe00849fbe00d38d80005b
:10082000c08d8000018e800011810a00010000004f
:10083000a21c2100e80251000042eb000d0037002d
:100840002112800001587800820f500001003a0008
:1008500005007800808f510005003a00c08d8800a7
:10086000001c210010400a00100100000a0037009f
:10087000844078003e22ab00f1ff3200c08d88003a
:10088000001c2100e18060008180400010017800a0
:100890000210a100010871000168a9004f02be000a
:1008a0004f01be004f00be00004006003c22ab00de
:1008b000010032003c22a9000628a90000400600e1
:1008c00017a8a90000400600809fbe00829fbe00be
:1008d000849fbe0000202000e10a2100110060007a
:1008e000020032002388a900230037000388a900f2
:1008f00053858000608580007185800088810a00b2
:1009000001000000020f210005fe2f00828242003c
:100910000042eb000f003700b080fb00811388001d
:10092000820f500001003a0005007800808f5100ce
:1009300007003a0060858800e00a210090007800f6
:100940000180a1000190a000010878000a00370092
:10095000844078006682ab00efff3200608588003b
:10096000e00a2100e1806000c808dd001001780085
:100970000280a100010871004f02be004f01be00bd
:100980004f00be0000400600809fbe00829fbe0058
:10099000849fbe0043858000308580007185800083
:1009a00011810a0001000000020d210005fe2f0048
:1009b000828242000042eb000d003700611380008c
:1009c00001587800820f500001003a0005007800bd
:1009d000808f510005003a0030858800e00a210030
:1009e00010400a00100100000a003700844078001f
:1009f0006622ab00f1ff320030858800e00a21005a
:100a0000e180600081804000100178000210a100a8
:100a1000010871000368a9004f02be004f01be002b
:100a20004f00be00004006006422ab00010032000f
:100a30006422a9000648a9000040060017c8a900c2
:100a400000400600809fbe0000e8ab0004003200ba
:100a500011c0b300a01c21000148780000e8a900e3
:100a60004f00be0000400600809fbe0000c8ab00e3
:100a70000400320011c0b300b01c2100014878000e
:100a800000c8a9004f00be00004006003600f80074
:100a9000809fbe00829fbe00849fbe00869fbe00d6
:100aa0007b10070020182100a21707000019210061
:100ab000a0170700781007006180800081004000c7
:100ac000618088000e50ec000ef0b700e84f500037
:100ad0001c003a000e70ef00c308de004180880061
:100ae0000c30ef00e2c52f0001014100a04b2000b7
:100af000800f51000900360010c0b30020f0b7008d
:100b000021f0b7000bf0b7000a70ef0031a3a80086
:100b10003183a8006783a8000a0037006135b1005f
:100b200090482000808f500006003e000b50e200ed
:100b30000400320010c0b3000af0b7000b70ef00e1
:100b4000db17070000e8a9004f03be004f02be00fc
:100b50004f01be004f00be003600f9000040060005
:100b60000040da000000fe000000050003f0a200d3
:100b7000889fbe008a9fbe008c1f7800f50007008a
:100b8000fc0033006450e1004f0032006420e100bb
:100b90005200320003826c0007003b000905d000c0
:100ba0000306d000820f54000c065d0002003900dd
:100bb0000200320089017800030678008582550022
:100bc00004003d000003fd008103fd008502ea00f2
:100bd0008b854200840f720002003b006000100011
:100be000e08018006011b8000005eb007a28e100f1
:100bf0000a00390006007800c75ddd00f707b20083
:100c0000878075002d003700828171000a0178000d
:100c1000610560008180d1000080d3008502e90079
:100c2000f9ff3b00060440008784480002003b00b7
:100c300060041400e0841c000988a300070032004f
:100c40008a81710082817100610164008904d10090
:100c50000884d3008b05e800170037000978a3004b
:100c600013003a000b00e000130034008b05e9008c
:100c70000804440089844c000a4474000978a300e5
:100c80000d003a000b00e000070034008b05e9007e
:100c90000804440089844c0001003a000b00200045
:100ca0000978a300f7ff32000001eb0002003700d3
:100cb000828171000a0178006b0007000cf0a70028
:100cc00001f0a000b40037006420e10002003a0007
:100cd000838f6c00b40033000801be000200be0028
:100ce000ad003700889fbe008a9fbe008c1f780031
:100cf000980007009f00330003866c006450e100f9
:100d00002e0032006420e100330032006150e10027
:100d10002f0032006120e10031003200858555004e
:100d2000eb07b00009002000080420000500370090
:100d30000804440089844c000a0031000603430083
:100d400087834b000001530081815b00f8ff330073
:100d50000203be000800a0000804440089844c007f
:100d6000f6ff3900c639dd0083017300010032004f
:100d7000130020008904d1000884d3000998a3003f
:100d8000050032000800a7000300a0008904d1007c
:100d90000884d3008b05e8008904d1000884d300bf
:100da0000001eb000281d2002f00070001f0a1003a
:100db0000cf0a70001f0a000770037006420e100ec
:100dc000790032000801be000200be00f7ff3700c4
:100dd0006120e100740032006000b800f3ff3700ca
:100de0000000200001f82700f0ff37001400200069
:100df000a40037000001be00410007000470a700f6
:100e000003f0a10003f8a30013003a006509b10044
:100e100010003200090035006928e10002003500a9
:100e2000010028000000050000004000818048000b
:100e30008502e900fcff3a0000000600f88f42003e
:100e4000050035008100d1000080d3008502e80054
:100e5000fcff3a00000006008000eb0000000500e7
:100e60006011b800a20037008100200061805500a9
:100e70000b003d000b00200061fe2f000100e1008f
:100e80001d00340082817100610164008904d10079
:100e90000884d3000000e800faff3a007100200047
:100ea000610064000300700002006000090032006d
:100eb00061044400e0844c000988a500050032006c
:100ec0008b05e8006808e10002003a008904d100bf
:100ed0000884d300f20f20000258e10005003d0015
:100ee000c75ddd00f907b200898075000800780051
:100ef000000006000bf827008b00780000000500ba
:100f0000c70ade00f107b200f50fb2000800320098
:100f1000e1cf4200020032000170a0002400050071
:100f2000810f700001003200040805004400050034
:100f3000810f700002003a00140005008502e900ec
:100f40000000400081c04800fcff3b000170a00091
:100f5000240005000004be00e9ff07000003be00f6
:100f60000405be000200be00e5ff0700844f7500c7
:100f7000000006000200be006450e10005003600db
:100f80006420e100020036000968a30001003a0075
:100f90000800be000160a0004f0678004f05be00ab
:100fa0004f04be0000000600f0ff2f00f1ff2700f5
:100fb000f9ff3700889fbe008a9fbe008c1f780013
:100fc000e4ff0700ebff330003866c006450e10090
:100fd000240032006420e100270032006150e1006b
:100fe000220032006120e100210032008b854200a6
:100ff000eb07b1000134b800003ab8000804420021
:1010000089844a00013ab8000030b8008880400066
:1010100009014a00040033000000400081804800bc
:10102000020149008b05e900c909dd008301700058
:101030000100320013002000c814de004814dd0057
:101040004709de001200b200c808de000884700004
:1010500085ff070001f0a1000cf0a70001f0a0003f
:10106000cdff37006120e100cfff32000801be0054
:101070000200be00f7ff37006150e100fcff3a00bc
:10108000c9ff3700889fbe008a9fbe00841f78007a
:10109000b0ff07004f00780011003300f0ff2f0071
:1010a000838f6c0006003b00040565000a00a70062
:1010b0000800370009f0a6001000200008003700e3
:1010c000820f5400838f5c00030039001000200061
:1010d00001003e000000200009f0a7000000ea0027
:1010e0004f05be004f04be000000e00000000600f7
:1010f000889fbe008a9fbe000082700004027100bb
:1011000004827100260032000004be000200be000e
:101110006011b8006b092000950220000182cf0009
:101120000a0039000541b1000082cf0007003900f4
:101130000541b1000982cf00040039000541b1002a
:101140000882cf00010039000541b100054252007c
:10115000120032000a003b008281710061016400cc
:101160008100d1000080d3008984d3000884d3009b
:101170008b05e8000442e800f7ff3a00070037005b
:101180000804440089844c00000048008180480025
:101190008b05e9000442e900f9ff3a0032ff07003d
:1011a0004f05be004f04be0000000600881f7800f7
:1011b0000204780008017800c4000700080040001d
:1011c0004f047800000006000000fa00881f780035
:1011d00000047800ea8157003fb997008800780042
:1011e000608d2000070007000000e00002003500cd
:1011f0008040eb00017478004f0478000080fa0012
:10120000000006006200fa00889fbe008a1f780076
:1012100000057800810478000204780083007800db
:1012200080f92f000f004000770107009a979f0078
:10123000a9979f000000eb00b09f9f001885fb005e
:101240008a04fb000a05ea004f55de005002200028
:10125000808f54000d003200e10f55000b003a0062
:101260000a017800880078002f9097009f919700de
:1012700003000100a0979f000000e0008e003200f4
:101280003f9897000000e800b09f9f000a044400c8
:1012900050022000808f5400040032000900e0005a
:1012a000e6ff3a003f989700840037000000eb000b
:1012b000909f9f00809f9f00f0979f00e0979f0066
:1012c000d0979f00c0979f0007003700211b210087
:1012d0000100500000004000611a21006100780008
:1012e000df98970001007000d09f9f00880478006d
:1012f00009047800384578008a00fb00201b210093
:10130000790007000000e000f0ff3a00a1c2b3003e
:10131000814f55000e003a00cf8897000180e90008
:10132000c08f9f0010007800c09f9f000000e00069
:1013300005003d000000ea00c09f9f005f989700f5
:101340000020a000d09f9f000904e8000f00370094
:10135000c09f9f000000eb0005003700f2ff270050
:10136000820f5000020032006a01b9000280400082
:101370000904780088047800b900fb000103b1007b
:10138000e98f5000f5ff3600c09f9f00e0c2b30018
:10139000984f1000020032000080eb001900370067
:1013a000a0c2b300d84f100007003a00cf889700c2
:1013b0000180e900c08f9f0010007800a09f9f006f
:1013c0000804e800100037000000eb00a09f9f0019
:1013d0008800780005003700f3ff2700830f5000d6
:1013e000020032006a02b9000400410001047800e2
:1013f000880078003101fb000203b100e90f5100c1
:10140000f5ff3600a09f9f00984478008900fb00fc
:10141000e0192100340007000000e0000200320063
:101420000804e800010037008044eb00c97f9f00fa
:1014300080c6b30080cf540004003a0098cf140057
:101440000a003a006640500006003700c0c6b300ec
:1014500080cf540005003a0098cf140003003a00f2
:1014600065404000c07f9f000804e8001801fb00b1
:10147000e3fb2f008f81410081f92f008f80400016
:10148000a0f92f000f004000e10007000000e0007d
:1014900009003a00e1fb2f008f804000a0f92f00e7
:1014a0000f0040001c0007000000e00002003500b3
:1014b0000804e80061ff37000080eb004f0578006a
:1014c0004f04be000080fa00000006008001780092
:1014d00002003700b15978000201e9000200e00083
:1014e000fcff3a0000000600020037000304e000a1
:1014f000060032000001780002007800b041780058
:1015000081cf5100f9ff3a00010037000001eb00e4
:1015100002007800000006000400fa00889fbe0068
:101520008a9fbe008c1f78000004780001067800b6
:10153000f80d900078009000808555000808900014
:101540008085550018089000808555002808900077
:101550008085550038089000808555004808900027
:10156000808555000002220090bf9f0000032300e9
:10157000a0bf9f00081090000028a30015003a00ab
:101580000b00e000130034000b0578008a0478009b
:10159000e20f55000100360029002000c80190002c
:1015a00009017800ee805700580090000300010008
:1015b000500498000000e0008c00320068089000a1
:1015c00009004000600c9800090555004240a90040
:1015d000eeff3c00780190000200e0000c003400b7
:1015e000c80190008c0078005800900003000100b2
:1015f000500498008080eb000000e0007c00320086
:10160000e80890007800900000804000600c98008e
:10161000880c90000900e0001100340009057800f2
:10162000e28f5400010036002a002000c80190001b
:101630000a017800ec805700580090000300010078
:10164000500498000000e000680032006808900034
:101650000a004000600c98008a845400edff3700b7
:10166000180990000200e0000c003400c80190004e
:10167000e80090005800900003000100500498001a
:101680008080eb000000e00059003200e808900084
:101690001808900000804000600c9800a80c900092
:1016a0000900e0001100340009057800e28f5400c1
:1016b000010036002a002000c80190000a017800cd
:1016c000ec8057005800900003000100500498007f
:1016d0000000e00045003200680890000a00400069
:1016e000600c98008a845400edff370038099000a0
:1016f0000200e0000e003400e8009000180890009e
:1017000080804000c8019000580090000300010054
:10171000500498008080eb000000e00034003200ac
:10172000e80890003808900000804000600c9800a5
:10173000c80c90000900e000110034000905780091
:10174000e28f5400010036002a002000c8019000fa
:101750000a017800ec805700580090000300010057
:10176000500498000000e00020003200680890005b
:101770000a004000600c98008a845400edff370096
:10178000081090008000eb000028a3001800320031
:101790000b00e000160034008b0478000905780087
:1017a000e28f5400010036002a002000c80190009a
:1017b0000a017800ee8057005800900003000100f5
:1017c000500498000000e000080032006808900013
:1017d0000a004000600c98008a8454004240a9002e
:1017e000eeff3c008000eb00010037008080eb0042
:1017f000010078004f0678004f05be004f04be0080
:101800000080fa00000006000108780000000600d1
:10181000889fbe008a1f7800000478008244780008
:101820000305780070c6b30080cf54001a003c0056
:1018300000c0e90080cf5400cd003d006d40500055
:1018400080cf5400770032000b003c007140500004
:1018500080cf540035013c0000c0e90080cf540027
:10186000c3003d0050c2b30080cf54002c013200b1
:101870007c4040000500370030c6b30080cf5400e4
:101880001a0032001e003c0000c0e90080cf540066
:1018900026013a00b6003700f0c6b30080cf5400ee
:1018a0006000320007003c006640500080cf5400ca
:1018b000130032006540400080cf54001b013a0005
:1018c000d400370050c7b30080cf54005500320019
:1018d0006340400080cf54005200320002c7b30082
:1018e00082cf540011013a00ff0037001181e90056
:1018f0008208780078009000127578001101370096
:1019000028609000c2c6b300824f500007003a0022
:101910001101780064005100800878001000be00ba
:101920004f89de00820178001400370012c7b3002f
:10193000824f500003003a00110278006800520004
:1019400005003700a2c6b300824f500006003a00df
:101950009102780068805200800878005001be0033
:101960004000be00050037001180e90080087800c3
:1019700010007800cf80de006109b900009cbe0035
:101980000294be002862900085c6b300854f5200c5
:101990000d00320025c6b300854f520004003a0006
:1019a0000000fb00cf80de006109b90008003700ad
:1019b00045c7b300854f520003003200e6c2420023
:1019c000854f520004003a00cf80de006109b90063
:1019d000009cbe000294be003802be002803be0078
:1019e00078009000d1c2b300e00f5200e08f5a009f
:1019f000e00f5b00e08f5b0008003500881090006e
:101a00000118a30002003200b1c2b3000300370086
:101a10000108a3005100320001c2b3000175780033
:101a20004c00370028609000c2c6b300824f5000bf
:101a300008003a0011037800640053008008780021
:101a40001002be006033b8000400be000601be00f4
:101a50001400370012c7b300824f500003003a0051
:101a6000910278006880520005003700a2c6b300da
:101a7000824f500006003a001103780068005300be
:101a8000800878005001be004000be00050037000d
:101a90001180e90080087800100078008000eb00d9
:101aa0006011b800009cbe000294be002862900045
:101ab00085c6b300854f52000d00320025c6b30025
:101ac000854f520004003a000080fb008000eb00cc
:101ad0006011b8000800370045c7b300854f5200b9
:101ae00003003200e6c24200854f520004003a0073
:101af0008000eb006011b800009cbe000294be00a4
:101b0000081090000038a300140032003800be0016
:101b10002801be00e00f5000e08f5800e00f590090
:101b2000e08f59000d00320080c7b30080cf540011
:101b30000300320080c5b30080cf540007003a0094
:101b40007800900001c3b300017578000000e80040
:101b5000097578000000e800700498007800900093
:101b6000000545006a049800894078006900370044
:101b700028619000c0c4b300804f510006003a00b5
:101b80009103780068805300800878005001be00ff
:101b90004000be00050037001101780064005100cc
:101ba000800878001000be0015050700009cbe00ec
:101bb0000294be00b8009000780090000100e000a0
:101bc00002003d00d1c2b300080037008810900029
:101bd0000118a30002003200b1c2b30003003700b5
:101be0000108a3000400320001c2b30001757800af
:101bf0000000e8007004980078009000000545009f
:101c00006a0498008900fb00080078005300070070
:101c10004e00370028619000c3c6b3001180e90070
:101c2000834f5100240032000a003c00e4c15100ff
:101c3000834f51002700320083c1e800834f5100d9
:101c40001500320020c6b300804f510020003a003a
:101c50000a00370043c7b300834f51001d00320014
:101c6000e6c14100834f51001a00320010c7b30093
:101c7000804f510016003a00060037001180e9003d
:101c80008008780010007800485c900008487800d0
:101c90002e0037001180e9008008780010007800dd
:101ca000680a9000cfa2de00612bb9000498be0044
:101cb0000690be00250037008008780010007800ec
:101cc00068099000cf91de000288be001f00370037
:101cd0001180e9008008780010007800680c9000fe
:101ce00008087800190037001181e900820878009f
:101cf00012027800cfa2de00612bb900049cbe0066
:101d00000694be00f8009000010545006a049800a2
:101d10008040780008007800860207000b0037003a
:101d20007800900009757800060037007800900070
:101d3000000545000904e00001003a0059c2b30063
:101d4000094d78000000e800700498000000eb00e6
:101d50004f0578004f04be00000006002f04b000bd
:101d6000889fbe008a9fbe008c9fbe008e1f780099
:101d70000007780081f79f003e04be002e05be00dc
:101d80005e0890000000e00002003d0060002000be
:101d9000500f98008e00780020fb2f000f004000ad
:101da0003a020700e20f50000a003a00300020001b
:101db000100f9800b1c9b3000ff0970081404000a8
:101dc00020052100e1cf50000d003e00e00421007d
:101dd0000b0037000000e0000f003400300020004e
:101de000100f9800b1c9b3000ff197008140410076
:101df000a0052100e1cf500001003e006005210058
:101e0000ee009000b0487800b0687800104078008c
:101e100090409800f30037000000e00005003a0011
:101e200022fb2f000f014100001978008001eb0018
:101e3000e70037006022b8006033b8000800be0039
:101e40000a01be00b60307000000e00001003d00eb
:101e50000bf0a200705927009f9897000088b900e6
:101e6000026a2800130020001104070064065000d5
:101e70009c9f9f0013003b0063061600c0ff2f00cd
:101e8000000666008c01ea00939f9f00ed0521008b
:101e90000800be000a01be00070037000c08a300be
:101ea000030032003d02be002d03be00a204070065
:101eb0000c86d100e88646000c00e000f7ff3c00ed
:101ec000180037000c00e00018003200c0ff2f009f
:101ed000000666009c9f9f00ed0521006000b80091
:101ee0000200200003ff2300070037000c08a300b6
:101ef000030032003d02be002d03be008e04070029
:101f00000c86d100e88646000c00e000f7ff3c009c
:101f10000002be000203be000800be000a01be00af
:101f2000890307000004be000205be00de08900021
:101f300060c6b3000ff29700804f520004003200d9
:101f40006000200062c4b300824f520002003a00d9
:101f50009f9a97006a80420081004000f1b79f007d
:101f600001037800f30f5300020034003701200012
:101f7000f7b79f0000c3b300c0779f0056fb2f0048
:101f80000f0343000e007800a0b79f0006077800fb
:101f90003d0037000800be000a01be0037040700fc
:101fa0000006be007fb1970068015100f2b79f00a4
:101fb0004240a9000c0034005c0407000002be008f
:101fc0000203be000800be000a01be00d0040700e4
:101fd0006022b80046782d007719240056040700c7
:101fe0000004be000205be00e80047008e0020008d
:101ff0000802be000a03be00b4b79f00c5b79f0029
:10200000d6b79f00e7b79f000c01be00010478001f
:102010000c003700a400200005002000c0fd2f00a8
:102020000f004000840107006fa89700ffa89700e9
:102030000fb197009fb1970005c3b300056441003d
:102040000001be00e00f5100e08f59000300340092
:102050000e07e900e10f4700eeff3a008800780024
:102060003fb49700cfb497005fb59700efb59700e6
:102070000200370000c3b300806078000e07e9005b
:10208000fcff3b00688740007fb397000600e0003c
:10209000070034006022b8006033b8000800be00ba
:1020a0000a01be00230307000000e000b9ff3c0066
:1020b0000e0378002fb7970051fb2f008f80400050
:1020c000010353009f9b970067804300909f9f00f0
:1020d000020037000603e9000000e9000101780072
:1020e0008200780003c3b300b1cf1100f9ff3200c2
:1020f000909f9f00de09900061c6b3000ff2970029
:10210000814f52000300320061c4b300814f52007e
:1021100002003a000000e8000a003700100020002a
:1021200051c6b3008ff2970081cf520005003200f4
:102130000540780050c4b2000080fb000000e900b8
:102140004f00de0083014000868f51000100340003
:10215000860178000300e0001d00350000c3b300d5
:10216000868f510006003d0062c279006940400040
:1021700041c3b300814f520001003c006940500050
:102180008300e900810041000100370084017800ec
:102190000302e90001037800a142780080cf5200d9
:1021a000faff320091c3b300814f500001003a00a2
:1021b000054be8000400e00005003d000201e900d5
:1021c0008301e8001f9b97000603e800969f9f008d
:1021d0008ff397008700fb001f9a97000e0078008e
:1021e000060007004f0778004f06be004f05be00ef
:1021f0004f04be002f04b10000000600f087470026
:10220000889fbe008a9fbe008c9fbe008e1f7800f4
:1022100000047800814478000205be0004067800be
:102220000b00e00002003c001b0020004a1d2100c2
:1022300060c6b30080cf54000e00320060c4b3000b
:1022400080cf54000b00320070c6b30080cf540022
:102250000300320070c4b30080cf540081003a0004
:10226000e40f46007f00350058089000800f5600ac
:102270007c003d000c06e80060c6b30080cf54002f
:102280001000320060c4b30080cf54000d00320053
:10229000081090000038a30004003a00580890008d
:1022a000808f550001003d005b0c9800580890009d
:1022b0000c005000500c980002003b000000eb00a6
:1022c000500c980018089000e80090000c00e00006
:1022d00026003c0002c3b300827078000000e800d2
:1022e000100c9800d80890000100e00003003c00aa
:1022f000881090000138a30005003200e80090002b
:10230000e2c2b300827078000000e800100c980070
:10231000580890008c00ea00810f500001003d0039
:102320000006ea008c00ea00210c98000006460036
:102330005c0c98008b0f5600010034000b067800ef
:102340003c0c9800e80090001808900000804000c5
:102350000c0178008a0078005cfc070058089000a7
:102360000c0650004c0c9800900037008c8f5500e4
:1023700018003d00008040000b0178008a007800c2
:1023800052fc07001808900000804500100c9800cf
:102390008b0556002b0c9800d80890000100e00037
:1023a00003003c00881090000138a30006003200b2
:1023b000e8009000e2c2b300827078003808900014
:1023c0000000e800300c980058089000400c98007d
:1023d00076003700008040000c0178008a00780009
:1023e0003afc07001808900000004600100c980006
:1023f0008c855500d80890000100e00003003c00e7
:10240000881090000138a30005003200e800900019
:10241000e2c2b300827078000000e800100c98005f
:1024200058089000808f5500010034008005780026
:10243000e800900018089000008040008c004500e3
:102440000b01780021fc0700180890000b004000e9
:10245000100c9800580890008b0550002b0c980029
:102460005200370018089000e80090009a70780039
:102470000000e800100c9800d80890000100e0006f
:1024800003003c00881090000138a30005003200d2
:10249000e8009000e2c2b300827078000000e8001b
:1024a000100c9800580890000000e0001000340064
:1024b0008b05e900808f550001003400800578000d
:1024c000e800900018089000008040008a00e800b2
:1024d0000b017800fdfb0700180890000b0040007e
:1024e000100c9800580890008b0550002b0c980099
:1024f000e80090001808900000804000095878001b
:102500000007e8000c00e00004003500b1c2b30091
:10251000014878008e04780004003700d1c2b3006f
:10252000014878008e0478000c06ea007d8557008b
:102530008006eb0009003700a20020008c00780024
:1025400072805700310007007fb097008fb8970066
:10255000016d7800000678008d06e8000c00e000b0
:10256000f5ff3c000d00e00009003a008e04780001
:1025700000c3b300805c7800050037008d06e900d9
:10258000fc80570061c07e0002c3b300825c400043
:102590000d00e000f9ff3c00e800900018089000f2
:1025a0000080400080845400390c9800081090008e
:1025b00074006000f00f50000e003a009808900080
:1025c0007800900000804000a808900001004000c2
:1025d000b808900001004000c808900001004000c9
:1025e000f8089000810f500002003d00008050006c
:1025f000000c98004f0778004f06be004f05be0044
:102600004f04be000f01b1000000060080027800f8
:1026100001037800050009000203d800800178005a
:10262000830a78000299b9000201530092029800cf
:102630000500780000000600881f78008a9fbe0011
:102640008c9fbe00000478000205be000406be0098
:102650000401be000a00be0015020700008cbe0087
:102660000c01be003f0307000005550081855d0099
:102670002a0498003b049800080078004f06be002a
:102680004f05be004f04780000000600889fbe0082
:1026900000047800e6844000e4800a00190000008d
:1026a000f27f2000820f500010003a00000ceb0077
:1026b000990478006f816400200020001b003a001c
:1026c000210190000200e00018003a001101900082
:1026d0000200e00015003a00100020001100e000a8
:1026e0001200320020002000100037000000e0003f
:1026f00004003a00010078003d0107000000e000fe
:1027000008003c00f20028001901610001fe2300ce
:10271000810c710021c02f00010c40000080eb00f3
:1027200002003700000ceb000000eb004f04be007d
:1027300000000600fc874700889fbe008a9fbe00fd
:102740008c9fbe008e1f78000006780080c5b30005
:1027500080cf50000a0032007740400080cf500008
:102760000a0032006940400080cf50000b00320068
:102770001015210080bf9f00ae0020000a00370026
:102780000214210082bf9f000600370013152100ac
:1027900083bf9f008e002000030037001415210026
:1027a00084bf9f000e0120003c02be002c03be002f
:1027b0000605be000404be0040c6b30080cf500032
:1027c000030032006540400080cf50000b003a000b
:1027d000e00f5200e08f5a00e00f5b00e08f5b00db
:1027e00006003d006000b8006011b800040450000d
:1027f000858458000605590087855900e80f570061
:102800000400320040002000f00f570038003a006a
:102810000100370030002000e00f5400e08f5c0022
:10282000e00f5d00e08f5d0004003a00dc089000de
:102830008d0120000100e000060032008e00e9005a
:10284000888060008fba9700e5c07800f1ef9f00a4
:102850007d012000800078008100e9000500330040
:102860008b05d1000a85d3008984d3000884d30066
:10287000f9ff3700089ebe000a96be00120037001e
:102880008d06e9008e00e900848060000fb9970092
:10289000e2c1780082fd2f000f01410003f17e00ac
:1028a000800078008100e900050033008783d100b3
:1028b0000683d3008582d3000482d300f9ff37005a
:1028c000049ebe000696be003c02be002c03be0065
:1028d000e00f5200e08f5a00e00f5b00e08f5b00da
:1028e0008b0034000d00e000e5ff3c00880037005d
:1028f0002c60900081c6b300814f50000b00320065
:1029000006003c000004e00008003200e6c0500071
:10291000814f50004e003a0004003700c1c6b3009a
:10292000814f50004a003a00210037000800e000c3
:1029300004003a005c0890008d0120000000e000d7
:1029400006003200050009000e84d8000fb9970078
:10295000e2c07800f1ef9f007d0120000500090032
:102960000e84d8000a003700050009000e04d800c4
:102970008d06e9000e81b900020454008fb897005b
:1029800061417c0081fd2f008f80400082f07e003d
:10299000000478000800e000020032000d00e000b2
:1029a000f1ff3c00cfc4de00614db90025003700c7
:1029b000e00f5400e08f5c0004003a005c089000d7
:1029c0008d0120000000e000070032006171b900b5
:1029d0000800be00600207008fb99700e34178004d
:1029e000f3ef9f007d0120006171b9000800be0077
:1029f000490207000b0037006171b9000800be00f2
:102a00002b0107008d06e90000f1b9000204540013
:102a10000fba9700e4427c0084fd2f000f024200b1
:102a200005f27e000004be00e00f5000e08f580069
:102a3000020032000d00e000efff3c004fcdde0051
:102a40008a057800089ebe000a96be003000370056
:102a5000e00f5400e08f5c00e00f5d00e08f5d0050
:102a600004003a005c0890008d0120000000e000a6
:102a7000090032006172b900612bb9000800be0084
:102a80000a01be00dd0207000fba97006442780019
:102a9000f4ef9f007d0120006172b900612bb90045
:102aa0000800be000a01be00cd0207000d0037007d
:102ab0006172b900612bb9000800be000a01be00b6
:102ac000d20207008d06e90000f2b90004045400a8
:102ad0008fba970065427c0085fd2f008f824200ef
:102ae00084f27e00009ebe000296be003c04be0042
:102af0002c05be00e00f5400e08f5c00e00f5d008d
:102b0000e08f5d00020034000d00e000e8ff3c00b3
:102b1000e80f570010003a000c1090000038a30096
:102b20000d003200f78f560006003e0085fd2f0095
:102b30008f824200e5c07e0000c3b30080cf50000a
:102b4000050032008d06e90002c3b30081fd2f00ad
:102b50008f80400082f07e0078811600120e98006f
:102b60006c00900083fd2f008f8141008d8041001b
:102b700056fa07001c089000dc089000810f5000f6
:102b800006003d0000805000000e98000c109000e0
:102b90000040a100001698000f0037000100e0007f
:102ba0000d003d008c109000f4806000f08f50000c
:102bb00009003a007c099000fc009000810051005f
:102bc0000c09900082805000008050004240a90013
:102bd00001003400000e98004f0778004f06be0039
:102be0004f05be004f04be00cf01b100000006003b
:102bf000e600400011017800050028008502610010
:102c00006f0161008208780002003200120020008b
:102c100011003700a0019000120020000300e00026
:102c20000d003a00900190000300e0000a003a0015
:102c30001000e00008003a0036003700640340004e
:102c40009608780080017800530b7800900978008e
:102c50000408780070015100110278000400e000bf
:102c6000f6ff3200130037006402400014037800be
:102c70004f33de00838141008308730080017800b8
:102c8000d3037800cf3bde00140378000603430033
:102c9000068a7300130278000402420010037800d1
:102ca0004f33de00860972009001780003884100ee
:102cb0000201e90091017800ef8f5100eaff360030
:102cc0001000370080017800530378004f33dd0097
:102cd0001002d100040873006402400094037800dd
:102ce000cf3bdd001303d100868973001103780008
:102cf0004f33dd009401d100030a73009108d10025
:102d00000201e80091017800ff8f5100edff3e00c5
:102d1000ef886100918872000200780000000600d0
:102d20008f1fd100160307008f87e9000000e00025
:102d300000000600809feb00110307008f87e90069
:102d40000000e000000006002800fa00889fbe0096
:102d50008a9fbe008c9fbe0003866b008f00070019
:102d60006400e100440032006408e1004a003200df
:102d70006100e100460032006108e10049003200d4
:102d8000ec0647006000b8003d02be003d03be00f7
:102d9000f48657006011b8003d04be003d05be003a
:102da0007d0320000b0037000000a0008d06e90025
:102db000130032000402420085824a0006034b00e1
:102dc00087834b00000040008180480002014900d9
:102dd000838149000802520089825a000a035b007d
:102de0008b835b00f0ff3b000802420089824a00af
:102df0000a034b008b834b008d06e900edff3a0080
:102e00008482720086827200f707b20087827200a5
:102e100001003200150020001e0490003e0b9000bf
:102e200006035400e63fb0000368a3000700320029
:102e30000000a7000500a0008301d1000281d3009b
:102e40008180d3000080d3000603e8008301d10015
:102e50000281d3008180d3000080d3000002eb0008
:102e60000482d2002100070003f0a1000cf0a700ab
:102e700003f0a0005d003700640247006408e10031
:102e8000570032003400be003401be00f6ff3700a8
:102e90006108e100520032006011b8006000b80023
:102ea000f1ff370003ff270002002000fbff37007f
:102eb000839f68000100e00002003d0060001000f8
:102ec000e08018000300e00002003d0060011100f6
:102ed000e0811900100107004f00e00002003b00f4
:102ee00060001000e08018000000060018002000bc
:102ef00057002000080453000d003d00060020008c
:102f000097fc2f000740e1001e003400848272000d
:102f1000610260008301d1000281d3008180d3006f
:102f20000080d3000804e800f8ff3a0047002000c2
:102f30006104600005047400040464000d003200a4
:102f400061004000e080480060014900e0814900e4
:102f500003b8a500070032000603e8006538e10069
:102f600004003a008301d1000281d3008180d300a4
:102f70000080d300f87f20000830e1000300350016
:102f8000080378006000b8006011b8004433dd0029
:102f9000f300b200830173000000060068044700dc
:102fa0000294be000094be00fc0447008694be005c
:102fb0008494be0009007800ba0207000800780077
:102fc000b802070099007800814f70000b003b00a9
:102fd0000800be00930207004f00b1000300370055
:102fe000f3ff2700f2ff2f006110b9004f06be006b
:102ff0004f05be004f04be000080fa00000006002e
:1030000081037800bef707000001be006000b80031
:103010000478a30013003a006220e10015003e008e
:103020000d0039008301d1000281d3008180d300db
:103030008301d1000281d3008180d3008301d100bc
:103040000281d3008180d3000538b000c42add009e
:10305000f300b2008381720007f0a70003f0a00024
:1030600000000600f3ff2700f2ff2f006110b900f7
:10307000fbff370003ff2700f7ff37001400fa00bb
:10308000889fbe008a9fbe008c9fbe000004be00c9
:103090000205be00680047000a90be000890be000e
:1030a000800207000070a7000bf0a1003043200051
:1030b0009e02900080825200b0fe2f000028e100a6
:1030c00011003d00b0fc2f000028e1001500340085
:1030d0001e0990008e0890007e0090000501b0004f
:1030e0000201d1008180d3000080d3008502e80076
:1030f000fbff3a000b00e000bcff3b00600010004b
:10310000e0801800b9ff3700f0ff2f00f1ff270023
:103110000b00e000b5ff3b0001002800000020008c
:10312000b2ff37006000b800b0ff37004f89de0003
:1031300082017800820237002800fa00889fbe00d2
:103140008a9fbe008c9fbe0003866b0093ff070022
:103150000028a30064003a000128a30067003a0099
:103160000008a30062003a000108a30065003a00cd
:103170001e009000be08900081064000ed3fb100a7
:10318000f4805700ee019000111ab8008e099000eb
:10319000311bb8009e099000311cb800511db800c9
:1031a000f485570046000700fe0190003a00070032
:1031b0008b85e8003e0007008e0990004000070064
:1031c000ee019000340007008b85e800380007000e
:1031d0008e099000400007009e0990001b18b8005f
:1031e000890440000a854800fe0190003400070071
:1031f0008b85e80038000700ee01900030000700e2
:103200008e0990001b18b800890440000a85480008
:103210000a98a30008003a000402420085824a008e
:1032200006034b0087834b0008044c0089844c0044
:103230000a054d008d06e900848272008502730044
:103240004c3add00850272000100320015002000ba
:10325000443ade001400b2004538de00cb45dd0004
:103260000b007000c540de00cb4ddd008b80700090
:103270004549de00cb55dd000b017100c551de0074
:103280000d03780019ff070003f0a1000cf0a70060
:1032900003f0a00055ff37001b18b800850240005e
:1032a00006834800e0834b0060044c0007003700b1
:1032b0001b18b8000603400087834800faff370058
:1032c0001b18b8008703400008844800e0844c00c5
:1032d00060054d00000006001b18b80008044000ff
:1032e00089844800faff37000108a3003cff3a0038
:1032f0005800be005801be00e3ff37000008a300dd
:1033000037ff3a0009047800f9ff37000000000099
:1033100007f0a2001c0137006022b800060220005e
:103320000000d0008180d2000482d2008582d200c9
:103330000000a0000202520083825a000300310004
:103340000202420083824a000000a1000603e90055
:10335000f3ff3a0000000600efff07000400be0084
:1033600000000600020ab900001bb9000200b80004
:10337000810042008100430000000600889fbe00db
:103380008a9fbe0030044200b0844a0030054b00e2
:1033900090854b006000b1000898be000a90be0006
:1033a0000440e10005c8e10006d0e10007d8e100d3
:1033b00002003100680040001008e8004f05be0020
:1033c0004f04be0000000600889fbe008a9fbe001a
:1033d0003004be002005be000418540005985c00af
:1033e00006185d0007985d00110020000440e10010
:1033f00005c8e10006d0e10007d8e100010039006e
:103400008000eb00108810004f05be004f04be0086
:10341000000006001200fa00889fbe008a9fbe00ce
:103420008c9fbe00e0b79f00f1b79f0082bf9f0056
:1034300093bf9f000605be000404be000000eb0021
:10344000d0b79f00c0b79f00b0b79f00a0b79f0044
:1034500090b79f000006eb005fb19700cfb09700d8
:10346000820141003fb097000200e00004003d00ef
:10347000370007007e805700c0ff070003003700b9
:10348000330007007e805700cfff0700dfb69700ac
:103490000d00e0000c0035006fb29700ffb29700fe
:1034a0000fbb97009fbb9700100020000100200079
:1034b0006011b80000027200818272000203730082
:1034c000838373001b0007000c06e8000104200042
:1034d000810f5600e0ff3a000d00e00004003d00bf
:1034e0000802be000a03be007e805700a3ff07004b
:1034f0005fa897000000e00005003a001fb29700a7
:10350000afb297003fb39700cfb397000900070011
:103510006fb09700ffb097000fb997009fb9970061
:103520004f06be004f05be004f04be000080fa00eb
:10353000000006000100070000000600a4b79f007d
:10354000b5b79f00c6b79f00d7b79f000000060021
:103550004f09de0082817100b3b79f004f01de008a
:103560008180400082807000a1b79f008fb09700db
:103570004f09de00000040000200700090b79f007d
:103580007fa897004f01de0081804000828070009c
:1035900081b79f000d0007004f3ade000000400099
:1035a00004007000f0af9f00080007000402420012
:1035b00085824a0006034b0087834b00dfff07002c
:1035c0000802be000a03be00000006002fb29700ea
:1035d000bfb297004fb39700dfb39700000006001b
:1035e000881f780018002000881f780089ff0700d6
:1035f0008f87e9004f04780000000600801feb0071
:1036000084ff07008f87e90000000600889fbe0046
:103610008a9fbe00e00f5000e08f5800e00f590075
:10362000e08f59000c003d006044b8006055b800c0
:103630000000540081805c0002015d0083815d0018
:10364000180020001500070008003d0018000700c2
:103650000004eb00050037000004eb000f0007003a
:1036600002003d001200070018002000dcff0700e8
:103670000800e000060032006022b8006033b800a5
:103680000000520081805a0002015b0083815b00d0
:103690004f05be004f04be0000000600e00f5200c0
:1036a000e08f5a00e00f5b00e08f5b000000060037
:1036b0006044b8006055b8000402540085825c0084
:1036c00006035d0087835d0000000600889fbe0042
:1036d0008a9fbe008c1f7800e00f5000e08f5800da
:1036e000e00f5900e08f59000d003d006044b80024
:1036f0006055b8000000540081805c0002015d004c
:1037000083815d001c0020000820e10009a8e10081
:103710000ab0e1000bb8e1000d003d0008003700e1
:103720000006eb00e00f5200e08f5a00e00f5b0054
:10373000e08f5b0006003d006044b8006055b800b3
:103740000402540085825c0006035d0087835d00ef
:10375000aaff07000c00e000060032006022b8005b
:103760006033b8000000520081805a0002015b0003
:1037700083815b004f0678004f05be004f04be00fa
:1037800000000600000000002800fa00889fbe002c
:103790008a9fbe008c9fbe0007067800878669005e
:1037a0000c003b00030478008704780008f0a100b7
:1037b00009f0a100840f5000858f5800860f590032
:1037c000890f5c00030033000cf0a20001003a00f6
:1037d0000cf0a100f1fd07006400e1005f00320081
:1037e000780147006408e100610032006c01470085
:1037f000748557003200be001201be003a04be00bc
:103800001a05be001e039000be0a900085035300f7
:1038100006003d000004fd008104fd000205fd00de
:103820008305fd008703ea00050378000df8a30077
:103830000400320060041400e0841c0060051d00d8
:10384000e0851d006022b8007d0320000d38e100f6
:103850008006eb000b0039004433dd00f300b200ba
:103860008301730039003700848272000d027800f2
:10387000e10664008b85d1000a85d3008984d300da
:103880000884d3008703e900f7ff3b0008004000ed
:10389000898048000a0149008b81490004003b00ef
:1038a00060001000e080180060011900e08119003c
:1038b0000358a300090032008d82720084827200d6
:1038c000610260008301d1000281d3008180d300b6
:1038d0000080d3000603e8001b0037000348a30064
:1038e00017003a000600e000170034000603e90064
:1038f0000d00a3000000480081804800020149003b
:10390000838149000348a3000f003a000600e0004d
:10391000090034000603e9000000400081804800ef
:10392000020149008381490001003a000003eb00d5
:103930000348a300f5ff32006022b8000200370000
:10394000848272006182660068fd070003f0a100b6
:103950000cf0a70003f0a000a4fd370064014700ad
:103960006408e10002003a000df8a3009cfd3a0053
:103970003200be001201be009cfd370000000000b6
:10398000889fbe008a9fbe008c9fbe000404be00bc
:103990000605be00809fbe00829fbe002f0007006c
:1039a000040678000800be000a01be002b000700d4
:1039b000840678004f03be004f02be008d4f760094
:1039c0007fb0970013003300f0ff2f008b8f6b0048
:1039d00006003b000d0666000c00a7000a00370039
:1039e00007f0a600100020000a003700880f5200e0
:1039f000898f5a008a0f5b008b8f5b0003003900b0
:103a00001000200001003e000000200007f0a70089
:103a10000000ea004f06be004f05be004f04be0086
:103a200000000600e48240001078a3000700320086
:103a3000640240001178a3003400be001401be00ef
:103a4000040032000330a700000006003500be006d
:103a50001501be000330a0000000060005ff27008e
:103a600005826100070032000428e10001003200f5
:103a7000240005000600070001003a00440005008c
:103a80000408050002000700f9ff3a0014000500d1
:103a90006f826100810270008502710085027200f0
:103aa00000000600800078005002be005003be00f7
:103ab0004439de00f700b200f37f2000030161000b
:103ac000090032000218e10016003a008501720078
:103ad00083017300838173000008200015003a0001
:103ae000400020001300370085017200830173003d
:103af0008381730005003a0004a8be0006a8be003a
:103b0000100020000b0037000201e900040242000f
:103b100085824a0006034b0087834b000748a300b9
:103b2000f9ff32000740a00004a8be0006a8be00ae
:103b300020002000800098009200980000000600fd
:103b4000881f7800030478000300e00007003d00b0
:103b500060001000e080180060011900e081190089
:103b600002003b0001f02d000300370004000700b5
:103b700008f0a70003f0a0004f0478000000060042
:103b8000889fbe00008270000402710004827100f0
:103b90002400320036432000c50020008383cf007c
:103ba0000a0039000541b1008283cf0007003900c7
:103bb0000541b1008183cf00040039000541b10007
:103bc0008083cf00010039000541b10085c3530057
:103bd0006022b800120032000a003b0084827200aa
:103be000610260008301d1000281d3008180d30093
:103bf0000080d3000603e8008743e800f7ff3a009f
:103c000007003700000040008180480002014900a1
:103c1000838149000603e9008743e900f9ff3a0080
:0c3c2000b2fc07004f04be0000000600cc
:020000040000fa
:103c2c0056620000756300006b200000203d000010
:103c3c0020200000253200002e32000066200000fb
:103c4c00562000002020000000560000626f00008b
:103c5c006f730000742000003d200000253200002e
:103c6c002e320000662000005620000020200000ac
:103c7c00200000005020000062750000636b000003
:103c8c00203d000020250000312e0000326600008f
:103c9c0020570000202000002020000000730000ae
:103cac007465000070200000202000003d20000002
:103cbc00253100002e320000662000005720000045
:103ccc002020000020000000506200006f6f0000f8
:103cdc0073740000203d000020250000312e0000f0
:103cec003266000020570000202000002020000039
:103cfc0000560000696e0000202000003d200000ee
:103d0c0020250000322e00003266000020560000f4
:103d1c002020000020000000546500006d700000a1
:103d2c00203d000020250000642000006465000098
:103d3c00672000004320000020200000004200000b
:103d4c00756300006b20000066610000756c00005c
:103d5c00747300003a2000002020000020000000b6
:103d6c004f43000020250000642000004f56000047
:103d7c002025000064200000524500004720000070
:103d8c002564000020000000426f00006f730000eb
:103d9c007420000066610000756c000074730000f4
:103dac003a2000002020000000460000697200004c
:103dbc006d770000617200006520000065720000e4
:103dcc00726f000072200000210000002020000013
:103ddc0020200000202000002020000020200000d7
:103dec00202000002020000020200000003d0000ca
:103dfc003d3d00003d3d00003d3d00003d3d0000cf
:103e0c003d3d00003d3d00003d3d00003d3d0000be
:103e1c003d3d00003d3d00003d3d00003d3d0000ae
:103e2c003d3d00003d3d00003d3d00003d3d00009e
:103e3c003d0a00000d00000050610000636b0000a3
:103e4c0065740000206300006f7500006e74000044
:103e5c00203d000020250000640a00000d00000039
:103e6c0056620000756300006b200000203d0000ce
:103e7c0020200000253200002e32000066200000b9
:103e8c00560a00000d000000566200006f6f000023
:103e9c0073740000203d000020250000322e00002d
:103eac0032660000205600000a0d0000005600008b
:103ebc00696e000070750000742000003d20000049
:103ecc0020250000322e0000326600002056000033
:103edc000a0d000000540000656d00007020000009
:103eec00202000003d20000025640000206400001c
:103efc0065670000204300000a0d00000050000020
:103f0c0020620000756300006b2000003d20000063
:103f1c00253100002e32000066200000572c0000d6
:103f2c00200000007374000065700000203d00004c
:103f3c0020250000312e00003266000020570000c2
:103f4c000a0d000000500000626f00006f7300004b
:103f5c00742000003d200000253100002e320000ae
:103f6c0066200000572c0000200000004275000065
:103f7c00636b000020660000617500006c7400002b
:103f8c00733a0000202000004f4300005020000036
:103f9c00256400002c2000004f560000502000002b
:103fac00256400002c200000524500004720000032
:103fbc00256400000a0d0000004200006f6f000035
:103fcc007374000020660000617500006c740000c2
:103fdc00733a0000204f00004350000020250000e1
:103fec00642c0000204f00005650000020250000db
:103ffc00642c0000205200004547000020250000e2
:10400c00640a00000d0000005261000077200000df
:10401c00504900004332000034200000696e00005b
:10402c00636f00006d6900006e6700002064000083
:10403c0061740000613a000000200000253000008f
:10404c0032780000000a00000d0000002020000063
:10405c00204d000049430000524f0000434800002f
:10406c004950000020200000202000000d0a000014
:10407c00006400007350000049430000333300001b
:10408c00434b000032350000364d00005035000027
:10409c00303500000a0d0000004d000049430000bf
:1040ac00524f0000434800004950000020200000ff
:1040bc006473000050490000430000002020000001
:1040cc0033330000434b000032350000364d000006
:1040dc0050350000303500002020000000000000aa
:0440ec000040000090
:020000040000fa
:1040f000881f7800000478001804e00007003200f0
:10410000f30507000004e000fdff3a0018407800c6
:10411000560507005804e000f9ff3a004f04780004
:1041200000000600c3e8a900000000000000000035
:1041300000000600c3e8a800000000000000000026
:10414000000006002000fa00889fbe008a1f780049
:10415000000578007a089000e30f50002500320037
:1041600005003e00e10f500009003200e20f500050
:10417000b9003a0062003700e50f50007a003200c3
:104180003d003900e60f5000b3003a0093003700bd
:104190001a00be00809fbe0060e12900801f7800e9
:1041a00040fd2f000f00400007f4070041fd2f00e5
:1041b0008f8040000040eb004f0707002a0090006e
:1041c000ba009000809fbe00b0e22900801f7800f6
:1041d000e0fc2f000f004000fbf30700e1fc2f0084
:1041e0008f80400010c0b30043070700ec875700e2
:1041f000ad0037001a00be000001be006df30700dd
:104200000004be006a019000fa01900069f3070003
:10421000809fbe0000e42900801f780040fd2f0031
:104220000f004000e8f3070041fd2f008f804000a1
:104230000040eb00300707000a0990009a0990003f
:104240000800be005bf30700809fbe0050e5290018
:10425000801f7800e0fc2f000f004000daf3070019
:10426000e1fc2f008f80400010c0b3002207070040
:10427000ec8757008c0037002a009000ba009000ad
:104280000001be004bf307000004be002a099000a5
:10429000ba09900047f30700809fbe00a0e62900fe
:1042a000801f780040fd2f000f004000c6f307007c
:1042b00041fd2f008f8040000040eb000e070700fb
:1042c0004a099000da0990000800be0039f307009f
:1042d000809fbe0050e52900801f7800e0fc2f0081
:1042e0000f004000b8f30700e1fc2f008f80400072
:1042f00010c0b30000070700ec8757006a003700c2
:104300004a009000da009000809fbe00f0e729008c
:10431000801f780040fd2f000f004000aaf3070027
:1043200041fd2f008f8040000040eb00f2060700a7
:104330004a5890000080fb00801f780020e9290087
:10434000801f780000fd2f000f0040009ef3070043
:1043500001fd2f008f80400010c0b300e60607006b
:10436000ea8757005000370050ea2900a1fd2f00ce
:104370008180470010000900b05878001001b1009a
:10438000a1fd2f008f8040000040eb00da060700ff
:104390000a10900044810a0000000000811f78008c
:1043a00011810a0000000000811f7800e11f6000f9
:1043b00060eb2900801f780020fd2f000f004000d7
:1043c00081f3070021fd2f008f80400010c0b30053
:1043d000c9060700e887570033003700a0ec290022
:1043e000a1fd2f008180470010000900b05878001f
:1043f0001001b100a1fd2f008f8040000040eb00b4
:10440000bd0607000a10900055810a000000000058
:10441000811f780033810a0000000000811f7800ae
:1044200022800a0000000000801f780060eb290055
:10443000801f780020fd2f000f00400062f307006e
:1044400021fd2f008f80400010c0b300aa06070096
:10445000e887570014003700b0ed2900a1fd2f00b8
:104460008180470010000900b05878001001b100a9
:10447000a1fd2f008f8040000040eb009e0607004a
:10448000c0ee2900a1fd2f00818047001000090027
:10449000b05878001001b100a1fd2f008f804000be
:1044a00010c0b300940607004f0578004f04be000b
:1044b0000080fa0000000600881f78000084fb00de
:1044c0006000b8000828a3000200320060c22f007c
:1044d00091e123000818a3000300320002e1230049
:1044e00083df2300a2f107000808a30003003200c5
:1044f00002e1230083cf23009df107004f047800e1
:1045000000000600881f78000084fb006000b800ef
:104510000828a30002003200e0402700a1bd2300cc
:104520000818a30003003200828c260083b9230000
:104530008ff107000808a30003003200d25a2500bb
:1045400033b023008af107004f0478000000060012
:10455000889fbe000004be0018407800c05c980030
:104560002840900020800a0000000000d2ff0700d1
:10457000e0049800f10498002840900064800a004c
:1045800000000000ccff0700800c9800910c980000
:104590003840900020800a0000000000d9ff07008a
:1045a000a00c9800b10c98003840900064800a007c
:1045b00000000000d3ff0700c00c9800d10c980049
:1045c00098409000e1806000091090000000a10078
:1045d00000807000801498009840900011810a00bb
:1045e00001000000818040000010a10000807000e8
:1045f000801498009840900022810a000100000079
:10460000c208dd000020a100008070008014980026
:104610009840900033810a0001000000c308dd00cb
:104620000030a1000080700080149800595890005c
:104630000040e800d05c98004f04be000000060077
:104640004b0707007b0807000a50e2000f0032000a
:104650002650ec0026f0b700e54f50000c003a0061
:1046600020e8a9008e0107009c01070031a3a900e2
:104670003183a9006783a90020e8a8002070ef001b
:104680002170ef000a70ef00010037002670ef0084
:104690002810ec004081880021032000810f500089
:1046a00003003a002830ef0010c0b30022f0b7003a
:1046b0002410ec002081880041062000810f50006a
:1046c00003003a002430ef0010c0b30023f0b7001d
:1046d000000006004000fa00889fbe008a9fbe00ce
:1046e00000057800d0ef290081fb2f008180470072
:1046f00024000900b05878005002b10080fb2f0060
:104700000f0040007afe07005a5890000080fb001e
:10471000801f780020f22900801f780040fb2f00c6
:104720000f004000a8f2070040fb2f000f004000e0
:104730006ffe07001a00be00809fbe0060f32900d4
:10474000801f7800e0fa2f000f0040009ef2070063
:10475000e0fa2f000f00400065fe07002a009000dd
:10476000ba009000809fbe00a0f42900801f78004e
:1047700080fa2f000f00400093f2070080fa2f000c
:104780000f0040005afe07004a009000da00900037
:10479000809fbe00d0f52900801f780020fa2f00ee
:1047a0000f00400088f2070020fa2f000f004000a1
:1047b0004ffe07004a5890000080fb00801f7800e1
:1047c00010f72900801f7800e0f92f000f0040004b
:1047d0007df20700e0f92f000f00400044fe0700c3
:1047e0001a00be000001be00f2f107000004be0086
:1047f0006a019000fa019000eef10700809fbe0070
:1048000050f82900801f780080f92f000f00400029
:104810006df207000f02b10080fb2f000f00400077
:1048200033fe07000a0990009a0990000800be00b4
:10483000e0f10700809fbe008bf929008b1f7800f4
:1048400020fb2f000f0040005ff2070020fb2f002d
:104850000f00400026fe07002a009000ba009000da
:104860000001be00d3f107000004be002a09900039
:10487000ba099000cff10700809fbe0090fa29008e
:10488000801f7800c0fa2f000f0040004ef2070092
:10489000c0fa2f000f00400015fe07004a099000e3
:1048a000da0990000800be00c2f10700809fbe0038
:1048b0008b1f780060fa2f000f00400042f20700c3
:1048c00060fa2f000f00400009fe07000a10900058
:1048d00044810a0000000000811f780011810a0055
:1048e00000000000811f7800e11f6000c0fb29006c
:1048f000801f7800e0f92f000f00400032f207001f
:10490000e0f92f000f004000f9fd07000a109000a9
:1049100055810a0000000000811f780033810a00e1
:1049200000000000811f780022800a0000000000c3
:10493000801f780030fe2900801f780060f92f006a
:104940000f00400020f207002f02b10080fb2f0073
:104950000f004000e6fd07004f05be004f04be00fb
:104960000080fa00000006004000fa00889fbe00a8
:104970008a1f780080047800a0002a00a1fb2f0085
:104980008180470018000900b05878009001b100fc
:10499000a0fb2f000f004000d5fd07000000eb003a
:1049a0000004eb003a022a00694078000080fb0016
:1049b000801f78008a1f780060fb2f000f004000e6
:1049c00001f2070060fb2f000f004000c8fd070048
:1049d0000804e80008007800e4875700e40f54005a
:1049e000f1ff3a00a0d02000d09f9f000040eb00d4
:1049f000c07f9f00a0fb2f000f004000bcfd070000
:104a00004f0578004f04be000080fa000000060049
:104a10006600fa00881f7800c2fd0700b30807008f
:104a2000230807009e000700bb000700ab0007003b
:104a3000220107002000200076200a00800c0000e0
:104a4000a9eca800ae2cef0081eca800b9fd07008e
:104a50006907070090022a00a5fd0700c0022a008e
:104a6000e1fb2f008180470012000900b058780058
:104a70003001b100e0fb2f000f0040009cfd07005b
:104a8000f0032a00e1fb2f0081804700130009009a
:104a9000b05878004001b100e0fb2f000f0040004b
:104aa00093fd0700cc04070030052a00e1fb2f002e
:104ab0008180470010000900b05878001001b10053
:104ac000e1fb2f008f8040000040eb000a0507004b
:104ad00040062a00e1fb2f008180470010000900fa
:104ae000b05878001001b100e1fb2f008f8040002a
:104af00010c0b3000005070000d0220011132000f1
:104b00008608070080f92f000f004000d805070035
:104b100050c0b3000d06070000a02500212620008c
:104b20007e080700c1f92f008f80400080f92f0018
:104b30000f00400086fe070046010700e08f9f003f
:104b4000f18f9f004d01070080979f0091979f0074
:104b500054010700a0979f00b1979f000040eb0011
:104b6000907f9f0010002000d09f9f0068002000d1
:104b700080f92f000f004000cb0507000004e00083
:104b800005003200c1f92f008f80400080f92f000e
:104b90000f0040006efe07002250e2001c003200b1
:104ba0002270ef002b010700e08f9f00f18f9f0024
:104bb0003201070080979f0091979f0039010700fd
:104bc000a0979f00b1979f000102210091407800bb
:104bd000e1806000c408dd006f9897000040a100ec
:104be00000807000e09f9f0011022100914078003a
:104bf000e1806000c508dd000050a1000080700069
:104c0000e09f9f00c0f92f000f0040004dfd0700fe
:104c10002350e200070032002370ef00c0f92f009c
:104c20000f004000abfe070080f92f000f0040008e
:104c30004dff0700fb0607000004e000ccff320038
:104c4000df989700e14f500004003a008100e8002f
:104c5000e68f500006003e0008003700e24f50008b
:104c600006003a008100e90003003200030037002b
:104c7000110020000100370088007800d19f9f00bc
:104c8000c0f92f000f0040002efd0700b8ff3700cd
:104c900008cba8000000060020618000000006008c
:104ca00010042000508c8800d00020000b04070066
:104cb00020808800000178000100210020182100d8
:104cc00007070700f17f2000201821000a070700ce
:104cd0002018210011070700000006000002200034
:104ce000c08c880020012000fc0307003080880071
:104cf000000178002100210000192100f8060700ba
:104d00006191200000192100fb0607000019210015
:104d10000207070000000600889fbe0088c8200028
:104d200013c0b300034178008000eb000800780056
:104d30007a04070019c0b300891f7800891f780022
:104d4000891f78000040eb00801f7800801f7800ea
:104d500000122a0071002000809fbe00d6cc2c00db
:104d6000c7f02b008000eb0034332300350524000e
:104d700002502600d3dc21000800780082040700de
:104d8000a832200095012000050278008001eb0088
:104d900052662600813e200008007800ca04070001
:104da0008042eb0005427800854178000941780097
:104db0002103200008007800140507008001eb00a3
:104dc00042332000611d200008007800de04070047
:104dd0000042eb008441780009417800844078006b
:104de00008007800dc0407008041eb0009417800ee
:104df0008340780008007800e204070030002000bb
:104e000020200a003403000035c0b300b4c1b30051
:104e10008041eb0022c0b300894078000800780090
:104e2000e4040700094278008041eb000341780068
:104e3000c1c0b30008007800b5040700683920003d
:104e40006022b8006011b800813e200008007800a0
:104e50009d0407000042eb0084417800094178007e
:104e60008940780008007800bb0407008001eb004f
:104e7000421f20004106200008007800b20407000d
:104e80001000200030200a009803000020002000bd
:104e900020200a00a00300000042eb0084417800bb
:104ea00004417800844078000800780098040700e6
:104eb000ee8757004f04be0000000600889fbe002a
:104ec0008a1f780088c920008041eb0012c0b3001f
:104ed0008000eb00080078001004070029c0b30030
:104ee000891f7800891f7800891f78003ac0b300b5
:104ef0008a1f7800801feb0000122a00710020003a
:104f0000809fbe000600200007f02b008000eb0011
:104f1000343323003505240002502600d3dc210061
:104f20000800780018040700083620006022b80046
:104f30008001eb00b2cc2600813e20000800780002
:104f4000610407008042eb0005427800854178004b
:104f500012c0b3002103200008007800ab04070052
:104f60008001eb0042382000211c2000080078005e
:104f7000750407000042eb008441780012c0b300c2
:104f80008440780008007800730407008041eb003b
:104f900012c0b3008340780008007800790407004d
:104fa0003000200030200a00620300008a427800ae
:104fb000c4c1b3008041eb000941780011c0b300c7
:104fc000080078007b0407000042eb008441780071
:104fd0000441780041c1b300080078004c04070088
:104fe000c83c20006022b8006011b800813e20005b
:104ff00008007800340407000042eb008441780088
:1050000012c0b30082407800080078005204070004
:105010006011b80041062000080078004a0407002b
:105020002000200030200a00ce0300000042eb00e8
:1050300084417800044178008440780008007800ba
:1050400033040700ee8757004f0578004f04be0079
:1050500000000600208080008000eb0080ef070049
:105060003233230033052400d2ef070002002f0063
:10507000f34f24001bef0700000006003080800083
:105080008000eb0076ef0700323323003305240065
:10509000c8ef070002002f00f33f240011ef0700c4
:1050a00000000600408080008000eb006cef0700ed
:1050b0003233230033052400beef070002002f0027
:1050c000f33f240007ef07000000060080c820001f
:1050d000ab0307000000060080c92000a8030700fa
:1050e00000000600208088002050e20003003a0003
:1050f00001e0fe00a904070000e0fe00700c2000a3
:105100008e0ce30004003e000000eb0054200a0077
:105110003003000006003700a00f20008e0ce300d3
:10512000030036001000200054200a003003000065
:1051300000000600308088002150e20004003a00a0
:1051400002e0fe0010808000ac06070000e0fe00d8
:105150000000060000082000001388000038b0009e
:10516000101388006422ef00200220003013880012
:10517000800d2000401388006a22ef007422ef00a7
:105180007622ef007822ef007a22ef007c22ef00f7
:105190007e22ef008022ef008222ef008422ef00c7
:1051a0002368a80061e2a80060a2a8006082a800ad
:1051b000000d21006085880050858800000b2100cb
:1051c0004085880030858800e00a210010017800c1
:1051d0002220b300e1ef2f0001086100000006006b
:1051e000820a21009200780031407800010978009d
:1051f000020d2100828f500003003a0001fe2f00b3
:10520000828040004185880042858000610a21003b
:10521000910f510002003a00e88040001110a000f8
:10522000e10a21001100a10000000600889fbe00d5
:105230008a9fbe00010578000004eb000a00e00030
:105240000f003200e10a210091007800e280600046
:105250000b003a0080047800eb0a210003003700bd
:105260009b0078006280600005003a00dcff0700c8
:10527000805c78000804e800880f5500f8ff3e00c5
:10528000080078004f05be004f04be000000060075
:105290002388a900a20a2100920078008058780093
:1052a00001097800000f2100808f500002003a00b1
:1052b0000002b10050858800e00a21001090a10092
:1052c0006185800064005000908f500002003a0019
:1052d000640040001080a0002388a80000000600a1
:1052e000889fbe008a9fbe008c1f78000105780051
:1052f0000004eb000a00e0000f0032000110200063
:10530000e20a2100928060000b003a0080047800dd
:10531000820578000c102000020037001b00660098
:1053200005003a00394078000804e800d8ff07007b
:10533000880f5500f9ff3e00080078004f067800fe
:105340004f05be004f04be000000060071858000be
:10535000800020000188a30001003a000000eb005b
:105360000198a300010032000040a0000108a30042
:10537000010032000000a0000118a300020032006a
:105380000020a000010037000010a000000006006f
:105390004285800080004100030d2100838f500072
:1053a000070039008300780001005000000141002f
:1053b00000fe2f000100400060407900010037002e
:1053c0001140780000000600881f78000004780073
:1053d0000040eb00ff8f500025003e00e00a210056
:1053e00010007800620160000040eb0020003a00ed
:1053f0000800e0001e00320042858000000b210002
:1054000000005100010040007f02600033858000f1
:10541000830f510007003100810041008301e90042
:1054200010c0b300838f50000b0036000040eb002b
:1054300009003700830f510009003600010b2100dd
:10544000810042008301e90010c0b300838f500047
:10545000010036000040eb000004e00004003200d0
