:020000040000fa
:080000000002040000000000f2
:020000040000fa
:04000800860400006a
:020000040000fa
:04000c00a804000044
:020000040000fa
:0400100042040000a6
:020000040000fa
:04001400ca0400001a
:020000040000fa
:04001800ec040000f4
:020000040000fa
:04001c00fe030000df
:020000040000fa
:040020006404000074
:020000040000fa
:0400240020040000b4
:020000040000fa
:04002800be0800000e
:020000040000fa
:04002c00be0800000a
:020000040000fa
:04003000be08000006
:020000040000fa
:04003400be08000002
:020000040000fa
:04003800be080000fe
:020000040000fa
:04003c00be080000fa
:020000040000fa
:04004000be080000f6
:020000040000fa
:04004400be080000f2
:020000040000fa
:04004800be080000ee
:020000040000fa
:04004c00be080000ea
:020000040000fa
:04005000be080000e6
:020000040000fa
:04005400be080000e2
:020000040000fa
:04005800be080000de
:020000040000fa
:04005c00be080000da
:020000040000fa
:04006000be080000d6
:020000040000fa
:04006400be080000d2
:020000040000fa
:04006800be080000ce
:020000040000fa
:04006c00be080000ca
:020000040000fa
:04007000be080000c6
:020000040000fa
:04007400be080000c2
:020000040000fa
:04007800be080000be
:020000040000fa
:04007c00be080000ba
:020000040000fa
:04008000be080000b6
:020000040000fa
:04008400be080000b2
:020000040000fa
:04008800be080000ae
:020000040000fa
:04008c00be080000aa
:020000040000fa
:04009000be080000a6
:020000040000fa
:04009400be080000a2
:020000040000fa
:04009800be0800009e
:020000040000fa
:04009c00be0800009a
:020000040000fa
:0400a000be08000096
:020000040000fa
:0400a400be08000092
:020000040000fa
:0400a800be0800008e
:020000040000fa
:0400ac00be0800008a
:020000040000fa
:0400b000be08000086
:020000040000fa
:0400b400be08000082
:020000040000fa
:0400b800be0800007e
:020000040000fa
:0400bc00be0800007a
:020000040000fa
:0400c000be08000076
:020000040000fa
:0400c400be08000072
:020000040000fa
:0400c800be0800006e
:020000040000fa
:0400cc00be0800006a
:020000040000fa
:0400d000be08000066
:020000040000fa
:0400d400be08000062
:020000040000fa
:0400d800be0800005e
:020000040000fa
:0400dc00be0800005a
:020000040000fa
:0400e000be08000056
:020000040000fa
:0400e400be08000052
:020000040000fa
:0400e800be0800004e
:020000040000fa
:0400ec00be0800004a
:020000040000fa
:0400f000be08000046
:020000040000fa
:0400f400be08000042
:020000040000fa
:0400f800be0800003e
:020000040000fa
:0400fc00be0800003a
:020000040000fa
:04010000be08000035
:020000040000fa
:04010400be08000031
:020000040000fa
:04010800520700009a
:020000040000fa
:04010c000e050000dc
:020000040000fa
:04011000be08000025
:020000040000fa
:04011400be08000021
:020000040000fa
:04011800be0800001d
:020000040000fa
:04011c00be08000019
:020000040000fa
:04012000be08000015
:020000040000fa
:04012400be08000011
:020000040000fa
:04012800be0800000d
:020000040000fa
:04012c00be08000009
:020000040000fa
:04013000be08000005
:020000040000fa
:04013400be08000001
:020000040000fa
:04013800be080000fd
:020000040000fa
:04013c00be080000f9
:020000040000fa
:04014000be080000f5
:020000040000fa
:04014400be080000f1
:020000040000fa
:04014800be080000ed
:020000040000fa
:04014c00be080000e9
:020000040000fa
:04015000be080000e5
:020000040000fa
:04015400be080000e1
:020000040000fa
:04015800be080000dd
:020000040000fa
:04015c00be080000d9
:020000040000fa
:04016000be080000d5
:020000040000fa
:04016400be080000d1
:020000040000fa
:04016800be080000cd
:020000040000fa
:04016c00be080000c9
:020000040000fa
:04017000be080000c5
:020000040000fa
:04017400be080000c1
:020000040000fa
:04017800be080000bd
:020000040000fa
:04017c00be080000b9
:020000040000fa
:04018000be080000b5
:020000040000fa
:04018400be080000b1
:020000040000fa
:04018800be080000ad
:020000040000fa
:04018c00be080000a9
:020000040000fa
:04019000be080000a5
:020000040000fa
:04019400be080000a1
:020000040000fa
:04019800be0800009d
:020000040000fa
:04019c00be08000099
:020000040000fa
:0401a000be08000095
:020000040000fa
:0401a40052080000fd
:020000040000fa
:0401a800be0800008d
:020000040000fa
:0401ac00be08000089
:020000040000fa
:0401b000be08000085
:020000040000fa
:0401b400be08000081
:020000040000fa
:0401b80090080000ab
:020000040000fa
:0401bc00be08000079
:020000040000fa
:0401c000be08000075
:020000040000fa
:0401c400be08000071
:020000040000fa
:0401c800be0800006d
:020000040000fa
:0401cc00be08000069
:020000040000fa
:0401d000be08000065
:020000040000fa
:0401d400ea07000036
:020000040000fa
:0401d800be0800005d
:020000040000fa
:0401dc0024080000f3
:020000040000fa
:0401e000be08000055
:020000040000fa
:0401e400be08000051
:020000040000fa
:0401e800be0800004d
:020000040000fa
:0401ec00be08000049
:020000040000fa
:0401f000be08000045
:020000040000fa
:0401f400be08000041
:020000040000fa
:0401f800be0800003d
:020000040000fa
:0401fc00be08000039
:020000040000fa
:04020000be08000034
:020000040000fa
:04020400be08000030
:020000040000fa
:04020800be0800002c
:020000040000fa
:04020c00be08000028
:020000040000fa
:04021000be08000024
:020000040000fa
:04021400be08000020
:020000040000fa
:04021800be0800001c
:020000040000fa
:04021c00be08000018
:020000040000fa
:04022000be08000014
:020000040000fa
:04022400be08000010
:020000040000fa
:04022800be0800000c
:020000040000fa
:04022c00be08000008
:020000040000fa
:04023000be08000004
:020000040000fa
:04023400be08000000
:020000040000fa
:04023800be080000fc
:020000040000fa
:04023c00be080000f8
:020000040000fa
:04024000be080000f4
:020000040000fa
:04024400be080000f0
:020000040000fa
:04024800be080000ec
:020000040000fa
:04024c00be080000e8
:020000040000fa
:04025000be080000e4
:020000040000fa
:04025400be080000e0
:020000040000fa
:04025800be080000dc
:020000040000fa
:04025c00be080000d8
:020000040000fa
:04026000be080000d4
:020000040000fa
:04026400be080000d0
:020000040000fa
:04026800be080000cc
:020000040000fa
:04026c00be080000c8
:020000040000fa
:04027000be080000c4
:020000040000fa
:04027400be080000c0
:020000040000fa
:04027800be080000bc
:020000040000fa
:04027c00be080000b8
:020000040000fa
:04028000bc070000b7
:020000040000fa
:04028400be080000b0
:020000040000fa
:04028800be080000ac
:020000040000fa
:04028c00be080000a8
:020000040000fa
:04029000be080000a4
:020000040000fa
:04029400be080000a0
:020000040000fa
:04029800be0800009c
:020000040000fa
:04029c00be08000098
:020000040000fa
:0402a000be08000094
:020000040000fa
:0402a400be08000090
:020000040000fa
:0402a800be0800008c
:020000040000fa
:0402ac00be08000088
:020000040000fa
:0402b000be08000084
:020000040000fa
:0402b400be08000080
:020000040000fa
:0402b800be0800007c
:020000040000fa
:0402bc00be08000078
:020000040000fa
:0402c000be08000074
:020000040000fa
:0402c400be08000070
:020000040000fa
:0402c800be0800006c
:020000040000fa
:0402cc00be08000068
:020000040000fa
:0402d000be08000064
:020000040000fa
:0402d400be08000060
:020000040000fa
:0402d800be0800005c
:020000040000fa
:0402dc00be08000058
:020000040000fa
:0402e000be08000054
:020000040000fa
:0402e400be08000050
:020000040000fa
:0402e800be0800004c
:020000040000fa
:0402ec00be08000048
:020000040000fa
:0402f000be08000044
:020000040000fa
:0402f400be08000040
:020000040000fa
:0402f800be0800003c
:020000040000fa
:0402fc00be08000038
:020000040000fa
:04030000be08000033
:020000040000fa
:04030400be0800002f
:020000040000fa
:04030800be0800002b
:020000040000fa
:04030c00be08000027
:020000040000fa
:04031000be08000023
:020000040000fa
:04031400be0800001f
:020000040000fa
:04031800be0800001b
:020000040000fa
:04031c00be08000017
:020000040000fa
:04032000be08000013
:020000040000fa
:04032400be0800000f
:020000040000fa
:04032800be0800000b
:020000040000fa
:04032c00be08000007
:020000040000fa
:100400002f3e23008efc24000e0188000000000017
:10041000000020000000e000020032000001200087
:100420002002880014000700560307000000e000c7
:1004300003003a00a0342e00010020000200370023
:100440000000200001002000810f70000100320038
:100450000f000700000020000000e0000200320052
:100460000000020000000000421d02000100000028
:100470000040da000000fe0000fb20000000e00069
:1004800002003200002020009001880000000600d9
:10049000a1028800800478000000eb001f003700f4
:1004a000e284440054a0b4009905ba00e2844400f8
:1004b00054a0b4009906ba00e284440054a0b400e9
:1004c0000006eb00476fde00fd07b200ae018800ba
:1004d000636ce10003003a000ad801000000eb0061
:1004e0000e003700606ce10008003a00004deb00a0
:1004f0000a05e800020039003420ec000af0a000f0
:100500008b05e900f9ff3e00040037006168e10057
:10051000010032000086eb000b00070019c7ba008b
:100520001905ba000e04e00003003a000a00e000da
:10053000dbff3a0000000600fe07b200ae028800b2
:100540008a047800f5ff37000cd0a300e20f4d00bd
:100550001c00390089027800354dba000a05e80010
:10056000020039003420ec000af0a0008b05e900fd
:100570000f003200254dba000a05e80002003900dc
:100580003420ec000af0a0008b05e90008003200de
:100590000c00e0000600320015cdba000a05e800a4
:1005a000020039003420ec000af0a0008b05e900bd
:1005b0008984e80054a0b4000b00e000e2ff3a0098
:1005c000000006009902ba00055d78008b05e9007d
:1005d000f7ff3200c82ade00055d78008b05e900d0
:1005e000f3ff32000c00e000f1ff320019ddba0029
:1005f000eeff3700ee1904000100000024ea0400b9
:100600000000000070ea040000000000b8ea0400e6
:100610000000000000eb0400000000005aeb0400a2
:1006200000000000a4eb040000000000201d0400f6
:10063000010000001c1d040001000000181d040042
:1006400001000000241d0400010000008c92040041
:1006500000000000ca92040000000000ec920400b8
:10066000000000002ec004000000000088c004004c
:1006700000000000e2c00400000000003cc10400d3
:100680000000000096c1040000000000ecc104005e
:100690000000000044c2040000000000a0c20400ea
:1006a00000000000fac204000000000054c304006f
:1006b00000000000aac304000000000002c40400ff
:1006c00000000000da190400010000000a9904008b
:1006d00000000000989104000000000032130400a4
:1006e00001000000f01204000100000020f20400ec
:1006f00000000000f2f0040000000000481d0400ab
:10070000010000008c61040000000000546104003e
:1007100000000000a061040000000000dab4040042
:10072000000000001e70040000000000587004006b
:100730000000000000b60400000000004ab50400fc
:1007400000000000b8460400000000002847040034
:1007500000000000da46040000000000c247040068
:1007600000000000d42404000000000058390400f8
:1007700000000000fcff0400000000004e07040021
:1007800001000000e407040001000000cc070400a1
:100790000100000014ff040000000000980604009f
:1007a000010000002e0704000100000016070400ed
:1007b00001000000cc01040001000000ba080400a0
:1007c0000100000050090400010000003809040085
:1007d00001000000e400040001000000040804001f
:1007e000010000009a0804000100000082080400d3
:1007f00001000000660b0400000000003600f80055
:10080000809fbe00829fbe00849fbe00869fbe0068
:1008100000082000609d8900e03a23001008e800ed
:10082000cc7f0200000000004f03be004f02be005c
:100830004f01be004f00be003600f9000040060028
:100840003600f800809fbe00829fbe00849fbe00dd
:10085000869fbe0000082000609d8900e03a2300ca
:100860001008e800cc7f0200000000004f03be002b
:100870004f02be004f01be004f00be003600f9001f
:10088000004006003600f800809fbe00829fbe0038
:10089000849fbe00869fbe0000042000609d8900ea
:1008a000e03a23001008e800cc7f020000000000be
:1008b0004f03be004f02be004f01be004f00be00fe
:1008c0003600f900004006003600f800809fbe00a8
:1008d000829fbe00849fbe00869fbe000002200053
:1008e000609d8900e03a23001008e800cc7f0200f8
:1008f000000000004f03be004f02be004f01be00cb
:100900004f00be003600f900004006003600f80037
:10091000809fbe00829fbe00849fbe00869fbe0057
:1009200010002000609d8900e03a23001008e800d4
:10093000cc7f0200000000004f03be004f02be004b
:100940004f01be004f00be003600f9000040060017
:100950003600f800809fbe00829fbe00849fbe00cc
:10096000869fbe0020002000609d8900e03a2300a1
:100970001008e800cc7f0200000000004f03be001a
:100980004f02be004f01be004f00be003600f9000e
:10099000004006003600f800809fbe00829fbe0027
:1009a000849fbe00869fbe0040002000609d89009d
:1009b000e03a23001008e800cc7f020000000000ad
:1009c0004f03be004f02be004f01be004f00be00ed
:1009d0003600f900004006003600f800809fbe0097
:1009e000829fbe00849fbe00869fbe0080002000c4
:1009f000609d8900e03a23001008e800cc7f0200e7
:100a0000000000004f03be004f02be004f01be00b9
:100a10004f00be003600f90000400600809fbe0077
:100a2000829fbe00849fbe00869fbe00889fbe003e
:100a30008a9fbe008c9fbe003200f8003400f80090
:100a400010002000a00188000020200090018800f4
:100a50000400fa000040eb00c0ff9f000000eb0024
:100a6000f0bf9f00d0ff9f00801a22000008eb001b
:100a7000601d8100c73d22006481530013c0b30094
:100a800068034100ea024100f903280054c5b3009d
:100a90000284e800e04090000118a30031003a0011
:100aa000c0489000504d9000c1ff9f00211e810062
:100ab0008100e800211e8900ea192200f10c810062
:100ac000e38f5000a600320032003e000100e0003b
:100ad00054003a00211e8900cff8970084cf5000bf
:100ae000ba003200dff897000104e000e9ff3200ad
:100af000413c22008008eb00120d8100813d220064
:100b00004411dd00028140006e0141000009eb004c
:100b1000120d81004411dd0082804000ec80400015
:100b20008008eb00000deb00e10c81000110a0003b
:100b3000e10c8900e10c81000100a100e10c8900b9
:100b4000e04090000118a30006003a00c048900061
:100b500050499000c1ff9f00e04090000118a300a1
:100b6000faff32000728a9000080fa003400f900db
:100b70003200f9004f06be004f05be004f04be0014
:100b80004f03be004f02be004f01be004f00be002b
:100b900000400600ef8f50005c003200ff8f5000d5
:100ba00036003200e78f500005003200d3ff9f006f
:100bb000dff897000104e000b6ff3200ccff3700f9
:100bc000110d8100c408dd00e680400062867800d7
:100bd0001b0d8100c45ddd00ee804500e2807800e1
:100be000cffe97000df678008b054100ee8545009d
:100bf000810de8002b1e8100010d8100e580400081
:100c0000818f5500b7ff3a00f10c81000130a00040
:100c1000f10c8900dff897000104e0009dff32002d
:100c2000b3ff3700e18f5000e0ff3a002b1e810038
:100c3000e28f550072003200211e8100e28f5000c9
:100c40008f003200211e8100e38f5000a5ff3a0083
:100c5000110d8100c408dd00cffd97000bf4780072
:100c6000f10c81000110a000f10c8900dff8970061
:100c70000104e00087ff32009dff3700110d810065
:100c8000c408dd00cffe97008df27800cff8970002
:100c9000edcf5000c5ff3a00f10c81000150a000db
:100ca000f10c8900110d8100c408dd0081004100b4
:100cb000ee8040008008eb00110d8100c408dd00cb
:100cc00081004100e9009800f10c810001f0a000d2
:100cd000f10c8900e10c81000100a000e10c890009
:100ce000110d81008100e800f1bf9f00ffb897005f
:100cf000e7806000110d8900000deb00dff8970020
:100d00000104e00063ff320079ff37002b1e8100f1
:100d1000010d8100e6804000818f550040003200c7
:100d20002b1e8100010d8100e7804000818f55005e
:100d30006cff3a00110d8100c408dd004ffe9700e2
:100d40000cf37800f10c81000140a000f10c890047
:100d5000dff897000104e0004eff320064ff370027
:100d6000211e8100e48f500036003200211e8100d8
:100d7000e58f50005bff3a00110d8100c408dd00d3
:100d8000cffd97008bf37800010d81004ffe970097
:100d90008c85fb008b807000010d8900110d810096
:100da000c408dd0081004100ee8040008008eb00b7
:100db000f10c81000120a000f10c8900dff8970000
:100dc0000104e00033ff320049ff3700110d8100bc
:100dd000c408dd00cffd97000bf178001100200062
:100de000211e8900f10c81000100a000f10c890096
:100df000dff897000104e00026ff32003cff3700d7
:100e00004ffe9700844f56008bff3a00211e890049
:100e1000dff897000104e0001eff320034ff3700c6
:100e2000110d8100c408dd0081004300cffd970053
:100e30009b409800dff897000104e00015ff3200a6
:100e40002bff3700110d8100c408dd0081804300b5
:100e50004ffe97009c409800cffe97008d80fb00ce
:100e6000010d8900010d8100c808dd00010d890018
:100e7000dff897000104e00006ff32001cff370096
:100e8000110d8100c408dd0081004400cffe9700f1
:100e90009d409800dff897000104e000fdfe32005d
:100ea00013ff3700809fbe00821f78003200f800d9
:100eb0003400f80010002000a0018800002020006d
:100ec00090018800601d8100c0409000504190005a
:100ed0006041900070419000f103b20006003a00ba
:100ee0000708a9003400f9003200f9004f0178002a
:100ef0004f00be000040060000000000c04090000f
:100f00000174a10041409800c04090000104a1007c
:100f100041409800c04090000124a1004140980049
:100f2000c04090000134a10041409800c0409000b2
:100f30000164a10041409800c04090000144a1001c
:100f400041409800c04090000114a1004140980029
:100f5000c04090000154a100414098000708a9003a
:100f60003400f9003200f9004f0178004f00be0054
:100f700000400600e0ff37003600f800809fbe000a
:100f8000829fbe00849fbe00869fbe0012c8ab0039
:100f900006003a004f03be004f02be004f01be00e4
:100fa0004f00be003600f900004006008c9f020092
:100fb0000000000012c8a9004f03be004f02be008f
:100fc0004f01be004f00be003600f9000040060091
:100fd000f6ff37003600f8003200f8003400f80061
:100fe00010002000a001880000202000900188004f
:100ff000e01d23004e07020001000000601a2300dc
:101000009806020001000000200e21009813020043
:1010100001000000c00221001060a000b06080004c
:1010200090838800c0608000c08388000b48a900be
:101030000d68a90008cba8003400f9003200f900bf
:101040003600f900004006003600f8003200f800d3
:101050003400f80010002000a001880000202000cb
:1010600090018800601a2300980602000100000029
:10107000200e21009813020001000000c002210090
:101080001060a000c0608000c08388000c28a90008
:101090000da8a9003400f9003200f9003600f9006b
:1010a000004006003600f8003200f8003400f80076
:1010b00010002000a001880000202000900188007e
:1010c0003e4ea800e0242300ba0802000100000000
:1010d000602123000408020001000000a01c210080
:1010e0009813020001000000401121001060a000d0
:1010f000b0608000d08a880070618000008b88001a
:101100000b48a9000be8a90008cba8003e4ea90097
:101110003400f9003200f9003600f9000040060002
:101120003600f8003200f8003400f800100020000b
:10113000a001880000202000900188006021230089
:101140000408020001000000a01c21009813020006
:1011500001000000401121001060a00070618000bb
:10116000008b88000d88a9000c88a9003400f900c4
:101170003200f9003600f900004006000040da00b5
:101180000000fe0000000500889fbe008a9fbe0090
:101190008c1f7800a7000700ae00330003866c00a8
:1011a0006450e1002e0032006420e1003300320080
:1011b0006150e1002f0032006120e1003100320077
:1011c00085855500eb07b0000900200008042000c9
:1011d000050037000804440089844c000a003100ef
:1011e0000603430087834b000001530081815b00ad
:1011f000f8ff33000203be000800a000080444000a
:1012000089844c00f6ff3900c639dd008301730084
:1012100001003200130020008904d1000884d300ab
:101220000998a300050032000800a7000300a000f1
:101230008904d1000884d3008b05e8008904d1001b
:101240000884d3000001eb000281d2003e000700b9
:1012500001f0a1000cf0a70001f0a000860037000b
:101260006420e100880032000801be000200be00d8
:10127000f7ff37006120e100830032006000b80012
:10128000f3ff37000000200001f82700f0ff3700cf
:10129000839f68000100e00002003d006000100034
:1012a000e08018000300e00002003d006001110032
:1012b000e0811900ab0007004f00e00002003b0096
:1012c00060001000e08018000000060014002000fc
:1012d000b40037000001be00410007000470a70001
:1012e00003f0a10003f8a30013003a006509b10060
:1012f00010003200090035006928e10002003500c5
:101300000100280000000500000040008180480026
:101310008502e900fcff3a0000000600f88f420059
:10132000050035008100d1000080d3008502e8006f
:10133000fcff3a00000006008000eb000000050002
:101340006011b800b20037008100200061805500b4
:101350000b003d000b00200061fe2f000100e100aa
:101360001d00340082817100610164008904d10094
:101370000884d3000000e800faff3a007100200062
:101380006100640003007000020060000900320088
:1013900061044400e0844c000988a5000500320087
:1013a0008b05e8006808e10002003a008904d100da
:1013b0000884d300f20f20000258e10005003d0030
:1013c000c75ddd00f907b20089807500080078006c
:1013d000000006000bf827008b00780000000500d5
:1013e000c70ade00f107b200f50fb20008003200b4
:1013f000e1cf4200020032000170a000240005008d
:10140000810f70000100320004080500440005004f
:10141000810f700002003a00140005008502e90007
:101420000000400081c04800fcff3b000170a000ac
:10143000240005000004be00e9ff07000003be0011
:101440000405be000200be00e5ff0700844f7500e2
:10145000000006000200be006450e10005003600f6
:101460006420e100020036000968a30001003a0090
:101470000800be000160a0004f0678004f05be00c6
:101480004f04be0000000600f0ff2f00f1ff270010
:10149000f9ff3700889fbe008a9fbe008c1f78002e
:1014a000e4ff0700ebff330003866c006450e100ab
:1014b000240032006420e100270032006150e10086
:1014c000220032006120e100210032008b854200c1
:1014d000eb07b1000134b800003ab800080442003c
:1014e00089844a00013ab8000030b8008880400082
:1014f00009014a00040033000000400081804800d8
:10150000020149008b05e900c909dd008301700073
:101510000100320013002000c814de004814dd0072
:101520004709de001200b200c808de00088470001f
:1015300085ff070001f0a1000cf0a70001f0a0005a
:10154000cdff37006120e100cfff32000801be006f
:101550000200be00f7ff37006150e100fcff3a00d7
:10156000c9ff37006022b800060220000000d0004a
:101570008180d2000482d2008582d2000000a000c7
:101580000202520083825a0003003100020242002c
:1015900083824a000000a1000603e900f3ff3a003d
:1015a00000000600889fbe008a9fbe00841f78004e
:1015b000a0ff07004f00780011003300f0ff2f005c
:1015c000838f6c0006003b00040565000a00a7003d
:1015d0000800370009f0a6001000200008003700be
:1015e000820f5400838f5c0003003900100020003c
:1015f00001003e000000200009f0a7000000ea0002
:101600004f05be004f04be000000e00000000600d1
:10161000889fbe008a9fbe00008270000402710095
:1016200004827100260032000004be000200be00e9
:101630006011b8006b092000950220000182cf00e4
:101640000a0039000541b1000082cf0007003900cf
:101650000541b1000982cf00040039000541b10005
:101660000882cf00010039000541b1000542520057
:10167000120032000a003b008281710061016400a7
:101680008100d1000080d3008984d3000884d30076
:101690008b05e8000442e800f7ff3a000700370036
:1016a0000804440089844c00000048008180480000
:1016b0008b05e9000442e900f9ff3a0022ff070028
:1016c0004f05be004f04be0000000600881f7800d2
:1016d00002047800080178001200070008004000aa
:1016e0004f047800000006000000fa00881f780010
:1016f00000047800ea8157003fb99700880078001d
:1017000060b620000e0007000000e0000200350077
:101710008040eb00017478004f0478000080fa00ec
:10172000000006008001780002003700b1597800ff
:101730000201e9000200e000fcff3a0000000600a0
:101740006200fa00889fbe008a1f780000057800ba
:1017500081047800020478008300780080f92f006b
:101760000f004000700107009a979f00a9979f0003
:101770000000eb00b09f9f001885fb008a04fb006f
:101780000a05ea004f55de0050022000808f540009
:101790000d003200e10f55000b003a000a017800fd
:1017a000880078002f9097009f9197000300010018
:1017b000a0979f000000e0008e0032003f98970045
:1017c0000000e800b09f9f000a044400500220007f
:1017d000808f5400040032000900e000e6ff3a0068
:1017e0003f989700840037000000eb00909f9f0017
:1017f000809f9f00f0979f00e0979f00d0979f00e9
:10180000c0979f000700370081332300010050007c
:1018100000004000c132230061007800df9897008b
:1018200001007000d09f9f008804780009047800b0
:10183000384578008a00fb008033230072000700df
:101840000000e000f0ff3a00a1c2b300814f550054
:101850000e003a00cf8897000180e900c08f9f00fa
:1018600010007800c09f9f000000e00005003d00d0
:101870000000ea00c09f9f005f9897000020a00032
:10188000d09f9f000904e8000f003700c09f9f0011
:101890000000eb0005003700f2ff2700820f500028
:1018a000020032006a01b900028040000904780099
:1018b00088047800b900fb000103b100e98f5000f3
:1018c000f5ff3600c09f9f00e0c2b300984f1000a4
:1018d000020032000080eb0019003700a0c2b30004
:1018e000d84f100007003a00cf8897000180e90028
:1018f000c08f9f0010007800a09f9f000804e800a0
:10190000100037000000eb00a09f9f0088007800c7
:1019100005003700f3ff2700830f5000020032005c
:101920006a02b900040041000104780088007800d0
:101930003101fb000203b100e90f5100f5ff360051
:10194000a09f9f00984478008900fb00403223004c
:101950002d0007000000e000020032000804e8004b
:10196000010037008044eb00c97f9f0080c6b300b0
:1019700080cf540004003a0098cf14000a003a00c7
:101980006640500006003700c0c6b30080cf540048
:1019900005003a0098cf140003003a00654040006b
:1019a000c07f9f000804e8001801fb00e3fb2f0044
:1019b0008f81410081f92f008f804000a0f92f0016
:1019c0000f004000da0007000000e00009003a00c4
:1019d000e1fb2f008f804000a0f92f000f00400096
:1019e000150007000000e000020035000804e800d0
:1019f00061ff37000080eb004f0578004f04be0008
:101a00000080fa0000000600020037000304e00036
:101a1000060032000001780002007800b041780032
:101a200081cf5100f9ff3a00010037000001eb00bf
:101a300002007800000006000400fa00889fbe0043
:101a40008a9fbe008c1f7800000478000106780091
:101a5000f80d9000780090008085550008089000ef
:101a60008085550018089000808555002808900052
:101a70008085550038089000808555004808900002
:101a8000808555000002220090bf9f0000032300c4
:101a9000a0bf9f00081090000028a30015003a0086
:101aa0000b00e000130034000b0578008a04780076
:101ab000e20f55000100360029002000c801900007
:101ac00009017800ee8057005800900003000100e3
:101ad000500498000000e0008c003200680890007c
:101ae00009004000600c9800090555004240a9001b
:101af000eeff3c00780190000200e0000c00340092
:101b0000c80190008c00780058009000030001008c
:101b1000500498008080eb000000e0007c00320060
:101b2000e80890007800900000804000600c980069
:101b3000880c90000900e0001100340009057800cd
:101b4000e28f5400010036002a002000c8019000f6
:101b50000a017800ec805700580090000300010053
:101b6000500498000000e00068003200680890000f
:101b70000a004000600c98008a845400edff370092
:101b8000180990000200e0000c003400c801900029
:101b9000e8009000580090000300010050049800f5
:101ba0008080eb000000e00059003200e80890005f
:101bb0001808900000804000600c9800a80c90006d
:101bc0000900e0001100340009057800e28f54009c
:101bd000010036002a002000c80190000a017800a8
:101be000ec8057005800900003000100500498005a
:101bf0000000e00045003200680890000a00400044
:101c0000600c98008a845400edff3700380990007a
:101c10000200e0000e003400e80090001808900078
:101c200080804000c801900058009000030001002f
:101c3000500498008080eb000000e0003400320087
:101c4000e80890003808900000804000600c980080
:101c5000c80c90000900e00011003400090578006c
:101c6000e28f5400010036002a002000c8019000d5
:101c70000a017800ec805700580090000300010032
:101c8000500498000000e000200032006808900036
:101c90000a004000600c98008a845400edff370071
:101ca000081090008000eb000028a300180032000c
:101cb0000b00e000160034008b0478000905780062
:101cc000e28f5400010036002a002000c801900075
:101cd0000a017800ee8057005800900003000100d0
:101ce000500498000000e0000800320068089000ee
:101cf0000a004000600c98008a8454004240a90009
:101d0000eeff3c008000eb00010037008080eb001c
:101d1000010078004f0678004f05be004f04be005a
:101d20000080fa00000006000108780000000600ac
:101d3000889fbe008a9fbe00e4c6b300844f510056
:101d4000be00320010003c006b425200844f510034
:101d50001800320005003c0054c2b300844f51000b
:101d6000f600320084c5b3000f00370044c6b3004c
:101d7000844f51001400320065424200844f5100ec
:101d8000f1003a001000370004c7b300844f51003f
:101d9000dd0032005600350065424200844f51009c
:101da0005300320063424200844f5100e6003a0083
:101db0004f0037001181e90082087800f0009000a0
:101dc00012417800de00370020629000c5c6b300e3
:101dd000854f520007003a00910278006482520059
:101de000840878001402be004fabde008603780042
:101df0001400370015c7b300854f520003003a00a6
:101e0000110478006802540005003700a5c6b3002d
:101e1000854f520006003a00910478006882540011
:101e2000840878005403be004402be000500370059
:101e30001182e9008408780014027800cfa2de0045
:101e4000612bb9000498be000690be00a06090000f
:101e500088c6b30088cf50000d00320028c6b300fa
:101e600088cf500004003a000402fb00cfa2de003d
:101e7000612bb9000800370048c7b30088cf500075
:101e8000030032006644440088cf500004003a004a
:101e9000cfa2de00612bb9000498be000690be0000
:101ea0003002be002003be00f0009000e00f5200a0
:101eb000e08f5a00e00f5b00e08f5b0002003d0006
:101ec000d4c2b30008003700001290000418a30029
:101ed00002003200b4c2b300030037000408a300bc
:101ee0005100320004c2b30084f178004c00370086
:101ef00020629000c5c6b300854f520008003a002a
:101f00001105780064025500840878001404be00ae
:101f10006055b8000802be000a03be001400370076
:101f200015c7b300854f520003003a0091047800b2
:101f30006882540005003700a5c6b300854f5200e3
:101f400006003a0011057800680255008408780000
:101f50005403be004402be00050037001182e900b0
:101f600084087800140278008002eb006033b80027
:101f70000498be000690be00a060900088c6b30022
:101f800088cf50000d00320028c6b30088cf500023
:101f900004003a000482fb008002eb006033b800ca
:101fa0000800370048c7b30088cf50000300320054
:101fb0006644440088cf500004003a008002eb00e1
:101fc0006033b8000498be000690be0080109000f8
:101fd0000138a300140032003002be002003be000e
:101fe000e00f5200e08f5a00e00f5b00e08f5b00d3
:101ff0000d00320081c7b300814f51000300320051
:1020000081c5b300814f510007003a00f0009000f5
:1020100004c3b30084f178008100e80082f1780005
:102020008100e80071009800f0009000818141007b
:1020300063009800824078003e003700a061900065
:10204000c4c6b3001181e90084cf510022003200e0
:102050000a003c006442520084cf51002500320047
:1020600004c2e80084cf51001300320068425200dd
:1020700084cf51001e003a000a00370044c7b30065
:1020800084cf51001b0032006642420084cf5100d1
:10209000180032006942520084cf510014003a0007
:1020a00005003700820878009200780040589000c0
:1020b000804878002c003700820878009200780071
:1020c000600a9000cfa2de00612bb9008498be00a8
:1020d0008690be00240037008208780092007800c5
:1020e00060099000cf91de008288be001e0037009c
:1020f0001181e90082087800920078006008900061
:1021000080087800180037001181e9008208780003
:1021100012027800cfa2de00612bb9000498be0045
:102120000690be00f000900081814100630098009d
:1021300081c7b300100007000b003700f0009000cb
:1021400082f1780006003700f000900081814100a4
:102150000204e00001003a0052c2b3008249780054
:102160008100e800710098000000eb004f05be0000
:102170004f04be0000000600fc874700889fbe0099
:102180008a9fbe008c9fbe008e1f780000067800dc
:1021900080c5b30080cf50000a0032007740400075
:1021a00080cf50000a0032006940400080cf5000cc
:1021b0000b003200702f230080bf9f00ae00200074
:1021c0000a003700622e230082bf9f0006003700fe
:1021d000732f230083bf9f008e0020000300370071
:1021e000742f230084bf9f000e0120003c02be001c
:1021f0002c03be000605be000404be0040c6b300aa
:1022000080cf5000030032006540400080cf500076
:102210000b003a00e00f5200e08f5a00e00f5b0025
:10222000e08f5b0006003d006000b8006011b80060
:10223000040450008584580006055900878559001c
:10224000e80f57000400320040002000f00f570054
:1022500038003a000100370030002000e00f540041
:10226000e08f5c00e00f5d00e08f5d0004003a004d
:10227000dc0890008d0120000100e0000600320023
:102280008e00e900888060008fba9700e5c0780072
:10229000f1ef9f007d012000800078008100e900bf
:1022a000050033008b05d1000a85d3008984d30053
:1022b0000884d300f9ff3700089ebe000a96be00ce
:1022c000120037008d06e9008e00e900848060006e
:1022d0000fb99700e2c1780082fd2f000f01410085
:1022e00003f17e00800078008100e90005003300e2
:1022f0008783d1000683d3008582d3000482d30074
:10230000f9ff3700049ebe000696be003c02be00e8
:102310002c03be00e00f5200e08f5a00e00f5b007c
:10232000e08f5b008b0034000d00e000e5ff3c0017
:10233000880037002c60900081c6b300814f5000a8
:102340000b00320006003c000004e00008003200f0
:10235000e6c05000814f50004e003a0004003700a4
:10236000c1c6b300814f50004a003a002100370037
:102370000800e00004003a005c0890008d01200095
:102380000000e00006003200050009000e84d800bd
:102390000fb99700e2c07800f1ef9f007d012000a7
:1023a000050009000e84d8000a0037000500090066
:1023b0000e04d8008d06e9000e81b9000204540015
:1023c0008fb8970061417c0081fd2f008f80400015
:1023d00082f07e00000478000800e0000200320075
:1023e0000d00e000f1ff3c00cfc4de00614db900fc
:1023f00025003700e00f5400e08f5c0004003a0035
:102400005c0890008d0120000000e0000700320011
:102410006171b9000800be00860007008fb99700ff
:10242000e3417800f3ef9f007d0120006171b90066
:102430000800be004bfc07000b0037006171b900bb
:102440000800be0092fb07008d06e90000f1b9000c
:10245000020454000fba9700e4427c0084fd2f0070
:102460000f02420005f27e000004be00e00f5000a3
:10247000e08f5800020032000d00e000efff3c004a
:102480004fcdde008a057800089ebe000a96be0089
:1024900030003700e00f5400e08f5c00e00f5d007b
:1024a000e08f5d0004003a005c0890008d01200080
:1024b0000000e000090032006172b900612bb90030
:1024c0000800be000a01be00fd0007000fba970019
:1024d00064427800f4ef9f007d0120006172b90032
:1024e000612bb9000800be000a01be00ed00070024
:1024f0000d0037006172b900612bb9000800be0001
:102500000a01be00f20007008d06e90000f2b900e2
:10251000040454008fba970065427c0085fd2f00ab
:102520008f82420084f27e00009ebe000296be00b2
:102530003c04be002c05be00e00f5400e08f5c00a0
:10254000e00f5d00e08f5d00020034000d00e00050
:10255000e8ff3c00e80f570010003a000c10900014
:102560000038a3000d003200f78f560006003e0031
:1025700085fd2f008f824200e5c07e0000c3b300be
:1025800080cf5000050032008d06e90002c3b30081
:1025900081fd2f008f80400082f07e007881160040
:1025a000120e98006c00900083fd2f008f81410077
:1025b0008d8041005bfc07001c089000dc08900047
:1025c000810f500006003d0000805000000e980072
:1025d0000c1090000040a100001698000f0037007a
:1025e0000100e0000d003d008c109000f4806000c0
:1025f000f08f500009003a007c099000fc00900028
:10260000810051000c099000828050000080500031
:102610004240a90001003400000e98004f077800e6
:102620004f06be004f05be004f04be00cf01b100f3
:1026300000000600cbfb07000400be0000000600ff
:10264000889fbe008a9fbe0030044200b0844a00ca
:1026500030054b0090854b006000b1000898be002b
:102660000a90be000440e10005c8e10006d0e10088
:1026700007d8e10002003100680040001008e800bf
:102680004f05be004f04be0000000600889fbe003c
:102690008a9fbe003004be002005be00041854000e
:1026a00005985c0006185d0007985d001100200089
:1026b0000440e10005c8e10006d0e10007d8e100d0
:1026c000010039008000eb00108810004f05be00ab
:1026d0004f04be00000006001200fa00889fbe00f2
:1026e0008a9fbe008c9fbe00e0b79f00f1b79f009d
:1026f00082bf9f0093bf9f000605be000404be007a
:102700000000eb00d0b79f00c0b79f00b0b79f009c
:10271000a0b79f0090b79f000006eb005fb1970045
:10272000cfb09700820141003fb097000200e00067
:1027300004003d00370007007e805700c0ff0700ff
:1027400003003700330007007e805700cfff0700eb
:10275000dfb697000d00e0000c0035006fb2970067
:10276000ffb297000fbb97009fbb9700100020009f
:10277000010020006011b800000272008182720026
:1027800002037300838373001b0007000c06e8003c
:1027900001042000810f5600e0ff3a000d00e00028
:1027a00004003d000802be000a03be007e80570000
:1027b000a3ff07005fa897000000e00005003a00b3
:1027c0001fb29700afb297003fb39700cfb3970007
:1027d000090007006fb09700ffb097000fb997008e
:1027e0009fb997004f06be004f05be004f04be00c4
:1027f0000080fa000000060001000700000006004b
:10280000a4b79f00b5b79f00c6b79f00d7b79f007a
:10281000000006004f09de0082817100b3b79f00ff
:102820004f01de008180400082807000a1b79f00d0
:102830008fb097004f09de000000400002007000da
:1028400090b79f007fa897004f01de008180400075
:102850008280700081b79f000d0007004f3ade00b4
:102860000000400004007000f0af9f000800070067
:102870000402420085824a0006034b0087834b0016
:10288000dfff07000802be000a03be0000000600ca
:102890002fb29700bfb297004fb39700dfb39700f6
:1028a00000000600881f780018002000881f7800ac
:1028b00089ff07008f87e9004f04780000000600b9
:1028c000801feb0084ff07008f87e90000000600ef
:1028d000889fbe008a9fbe00e00f5000e08f580026
:1028e000e00f5900e08f59000c003d006044b80033
:1028f0006055b8000000540081805c0002015d005a
:1029000083815d00180020001500070008003d00cd
:10291000180007000004eb00050037000004eb007e
:102920000f00070002003d00120007001800200001
:10293000dcff07000800e000060032006022b8005b
:102940006033b8000000520081805a0002015b0031
:1029500083815b004f05be004f04be0000000600ef
:10296000e00f5200e08f5a00e00f5b00e08f5b0049
:10297000000006006044b8006055b800040254002e
:1029800085825c0006035d0087835d000000060011
:10299000889fbe008a9fbe008c1f7800e00f500009
:1029a000e08f5800e00f5900e08f59000d003d0006
:1029b0006044b8006055b8000000540081805c009d
:1029c00002015d0083815d001c0020000820e10001
:1029d00009a8e1000ab0e1000bb8e1000d003d00dc
:1029e000080037000006eb00e00f5200e08f5a00ad
:1029f000e00f5b00e08f5b0006003d006044b80024
:102a00006055b8000402540085825c0006035d0036
:102a100087835d00aaff07000c00e000060032007b
:102a20006022b8006033b8000000520081805a0074
:102a300002015b0083815b004f0678004f05be00fa
:082a40004f04be000000060077
:020000040000fa
:102a4800505200004c3a0000204300006875000016
:102a58006e6b0000546900006d6500007220000074
:102a6800746900006d650000206f00007574000037
:102a7800200d00000a000000505200004c5f0000ca
:102a8800545800005f4d0000534700005f440000a9
:102a98004953000043410000524400005f4f0000ca
:102aa8004e5f000052430000563a000020540000d8
:102ab800782000004d730000672000004469000082
:102ac8007363000061720000646500006420000008
:102ad8006f6e00002052000065630000760d000054
:102ae8000a000000505200004c3a0000204200004a
:102af80075660000666500007265000064200000cd
:102b080054780000204d0000736700002073000017
:102b1800656e0000742000006f6e0000206c0000dd
:102b2800696e0000650d00000a00000050520000a8
:102b38004c3a0000204900006e74000069610000f2
:102b48006c69000073610000746900006f6e00001a
:102b5800204400006f6e0000650d00000a000000b0
:102b6800505200004c3a00002043000068750000f5
:102b78006e6b0000205300004d200000456e0000e1
:102b8800616200006c650000640d00000a0000002e
:102b9800577200006f6e000067200000534f00005e
:102ba800502a0000207400007970000065200000a1
:102bb80064650000746500006374000065640000cb
:102bc8000d0a000000500000524c00005f54000045
:102bd800585f00004d530000475f00004255000059
:102be8004646000045520000454400005f4f000083
:102bf8004e5f0000434100003a2000005478000076
:102c0800204d000073670000204200007566000038
:102c180066650000726500006420000064750000ad
:102c280065200000746f000020430000410d000083
:102c38000a000000505200004c5f00005458000089
:102c48005f4d0000534700005f4f00004e5f0000db
:102c58004c4900004e4500003a200000547800001e
:102c6800204d00007367000020730000656e0000af
:102c7800742000006f6e0000206c0000696e000078
:102c8800650d00000a000000505200004c5f000073
:102c9800545800005f48000041520000445f0000a3
:102ca8005245000053450000545f000053450000a2
:102cb8004e5400003a200000486100007264000091
:102cc8002052000065730000657400002073000046
:102cd800656e0000742000006f6e0000206c00001c
:102ce800696e0000650d00000a00000050520000e7
:102cf8004c3a00002052000065630000656900003e
:102d08007665000072200000656e000061620000b8
:102d18006c650000640d00000a00000050520000bd
:102d28004c5f0000485200005f4300004f4d000018
:102d3800504c000045540000453a00002050000067
:102d4800524c00002069000073200000696e0000ea
:102d5800666f0000726d000065640000206100006d
:102d6800626f0000757400002048000052200000c7
:102d7800636f00006d7000006c65000074650000f2
:102d880000500000524c00005f430000485500000e
:102d98004e4b00005f5200004551000055450000b1
:102da800535400005f520000435600003a200000d0
:102db80043680000756e00006b200000526500003b
:102dc80071750000657300007420000072650000d2
:102dd800636500006976000065640000005000002b
:102de800524c00005f540000434800005f4500005b
:102df800525200004f5200003a2000005265000075
:102e080071750000657300007420000043680000bd
:102e1800756e00006b2000006e7500006d6200008a
:102e280065720000206d0000697300006d6100008c
:102e38007463000068000000505200004c5f0000fe
:102e480043480000554e00004b5f0000554e0000ff
:102e58004558000050450000435400004544000018
:102e68005f4d0000534700005f52000043560000ca
:102e78003a200000556e000065780000706500007b
:102e8800637400006564000020430000687500005a
:102e98006e6b0000206d0000736700002072000058
:102ea8006563000065690000766500006400000045
:102eb800505200004c5f000043480000554e00008f
:102ec8004b5f000052450000535000004f4e000079
:102ed800534500005f520000435600003a200000ae
:102ee80043680000756e00006b200000526500000a
:102ef800737000006f6e00007365000020520000c0
:102f080065630000656900007665000064000000e4
:102f1800505200004c5f000043480000554e00002e
:102f28004b5f000052450000435600005f4500001b
:102f3800525200004f5200003a2000005265000033
:102f4800737000006f6e000073650000204300007e
:102f5800687500006e6b0000206e0000756d000043
:102f680062650000722000006d690000736d00004a
:102f7800617400006368000000500000524c0000bb
:102f88005f430000485500004e4b00005f550000ad
:102f98004e450000585000004543000054450000cd
:102fa800445f00004d530000475f0000524300009b
:102fb800563a0000205500006e6500007870000049
:102fc8006563000074650000642000006d730000f4
:102fd80067200000726500006365000069760000e4
:102fe80065640000206f00007468000065720000ce
:102ff80020740000686100006e2000005069000025
:103008006e6700002026000020430000687500005d
:103018006e6b0000206d0000736700000050000018
:10302800524c00005f520000585f0000504b0000f7
:10303800545f000050410000535300004544000015
:103048005f5400004f5f0000504500003a20000028
:1030580052780000204d00007367000020720000c5
:103068006563000065690000766500006420000063
:103078007061000073730000656400002074000034
:103088006f200000504500000d0a000000500000ad
:10309800524c00005f450000585400004e5f00008d
:1030a800525800005f5000004b5400005f50000071
:1030b8004153000053450000445f0000544f000096
:1030c8005f500000453a0000204500007874000079
:1030d800656e000064650000642000004d73000008
:1030e80067200000726500006365000069760000d3
:1030f80065640000207000006173000073650000c3
:1031080064200000746f000020500000450d00008e
:103118000a000000505200004c5f000052580000a6
:103128005f430000485500004e4b00005f5200000e
:10313800435600005f450000525200004f52000005
:103148003a20000052780000204300006875000013
:103158006e6b000020450000727200006f72000064
:10316800200d00000a000000505200004c3a0000f8
:10317800204300004f4e000046490000475f000012
:10318800505200004c5f0000534900004e4b0000b5
:103198005f540000585f0000544900004d4500008e
:1031a8004f550000545f00004d5300002069000097
:1031b8007320000073650000740d00000a00000011
:1031c800505200004c3a000020430000687500008f
:1031d8006e6b0000205300004d200000505200008c
:1031e8004c5f000052430000485f00005345000058
:1031f8004e4400005f430000485500004e4b00005d
:103208005f5200004551000055450000535400002e
:103218005f530000540d00000a00000050520000e7
:103228004c3a000020430000687500006e6b0000f7
:10323800205300004d200000505200004c5f000059
:1032480054430000485f0000534500004e4400000e
:103258005f52000045530000504f00004e530000dd
:10326800455f000043480000554e00004b5f0000da
:10327800535400000d0a000000500000524c00009a
:103288003a20000043680000756e00006b200000c3
:10329800534d000020500000524c00005f540000c5
:1032a800434800005f430000485500004e4b0000b3
:1032b8005f540000585f000045520000524f000064
:1032c800525f0000535400000d0a00000000000087
:1032d800000000003900000073000000ac0000008e
:1032e800e60000001f0100005901000092010000e3
:1032f800cc010000050200003e0200007702000039
:10330800770200003e02000005020000cc01000028
:1033180092010000590100001f010000e6000000b2
:10332800ac0000007300000039000000000000003d
:10333800ce730000ce730000721e0000721e0000e3
:1033480065170000504500005f530000524300001d
:103358005f530000544100005254000055500000d3
:103368002d4500004e540000525900005f530000e4
:10337800530d00000a000000504500005f53000094
:10338800524300005f5300005441000052540000b3
:10339800555000002d490000444c0000455f0000d6
:1033a800535300003a20000044650000766900008d
:1033b8006365000020410000747400006163000030
:1033c80068650000640d00000a0000005045000018
:1033d8005f530000524300005f5300005441000057
:1033e80052540000555000002d490000444c000084
:1033f800455f0000535300003a200000452d0000af
:1034080043610000626c000065200000616e0000ee
:1034180064200000446500007669000063650000d0
:1034280020410000747400006163000068650000ba
:10343800640d00000a000000504500005f530000c2
:10344800524300005f530000454e0000445f0000f7
:1034580043410000502d0000454e0000545200002a
:10346800595f0000535300003a20000053650000e4
:103478006e640000205300006f7500007263000046
:10348800652000004361000070610000626900006f
:103498006c69000074690000657300000d0a000083
:1034a80000500000455f000053520000435f0000d9
:1034b800534500004e4400005f43000041500000a7
:1034c8002d4700004f4f00004443000052430000c6
:1034d8005f52000045430000454900005645000082
:1034e800445f0000535300000d0a00000050000024
:1034f800455f000053520000435f00005345000041
:103508004e4400005f430000415000002d5300006e
:10351800454e000044450000525f0000524500003f
:10352800535000004f4e0000534500005f54000008
:10353800494d0000454f0000555400005f530000fe
:10354800530d00000a000000504500005f530000c2
:10355800524300005f4e0000454700004f540000f2
:1035680049410000544500005f43000041500000fd
:1035780041420000494c000049540000593a0000fb
:10358800205200006571000075650000737400002a
:103598002069000073200000566100006c6900007b
:1035a800640d00000a000000504500005f53000051
:1035b800524300005f4e0000454700004f54000092
:1035c80049410000544500005f430000415000009d
:1035d80041420000494c000049540000593a00009b
:1035e80020520000657100007565000073740000ca
:1035f8002069000073200000496e00007661000019
:103608006c690000640d00000a00000050450000cd
:103618005f530000524300005f5400005241000015
:103628004e53000049540000494f00004e5f00000f
:1036380053550000505000004c5900002d45000023
:103648004e540000525900005f530000530d000013
:103658000a000000504500005f530000524300007c
:103668005f540000524100004e53000049540000ce
:10367800494f00004e5f00005355000050500000b5
:103688004c5900002d45000058490000545f0000c7
:10369800535300000d0a000000500000455f000071
:1036a80053520000435f00005245000041440000af
:1036b800592d0000454e000054520000595f00008b
:1036c800535300000d0a0000005000004450000051
:1036d80057520000000d00000a000000504500008d
:1036e8005f530000524300005f440000495300004c
:1036f800434f000056450000525900002d45000078
:103708004e540000525900005f530000530d000052
:103718000a000000504500005f53000052430000bb
:103728005f44000049530000434f00005645000025
:10373800525900002d45000058490000545f000010
:10374800535300000d0a000000500000455f0000c0
:1037580053520000435f00004841000052440000fb
:103768005f52000045530000455400002d450000fd
:103778004e540000525900005f530000530d0000e2
:103788000a000000504500005f530000524300004b
:103798005f48000041520000445f000052450000ad
:1037a80053450000542d00004558000049540000be
:1037b8005f530000530d00000a0000005045000050
:1037c8005f530000524300005f4800004152000070
:1037d800445f00005245000053450000545f00005c
:1037e800524500004345000049560000454400008a
:1037f8002d4500004e540000525900005f53000050
:10380800530d00000a000000504500005f530000ff
:10381800524300005f48000041520000445f00002e
:103828005245000053450000545f00005245000017
:103838004345000049560000454400002d4500005e
:1038480058490000545f0000535300000d0a00005f
:1038580000500000455f000053520000435f000025
:1038680054520000414e00005349000054490000e2
:103878004f4e00005f5400004f5f000044450000b9
:1038880046410000554c0000542d0000454e0000f4
:1038980054520000595f0000535300000d0a000005
:1038a80000500000455f000053520000435f0000d5
:1038b80054520000414e0000534900005449000092
:1038c8004f4e00005f5400004f5f00004445000069
:1038d80046410000554c0000542d0000504f000098
:1038e80057450000525f00004f4e00005f53000034
:1038f800530d00000a000000504500005f5300000f
:10390800524300005f540000524100004e53000033
:1039180049540000494f00004e5f0000544f00001a
:103928005f44000045460000415500004c5400002b
:103938002d45000058490000545f00005353000013
:103948000d0a000000650000504500005f530000ac
:10395800524300005f530000454e0000445f0000e2
:10396800534f0000465400005f52000045530000ca
:10397800455400002d5300004f5000005f530000d5
:10398800530d00000a000000504500005f5300007e
:10399800524300005f530000454e0000445f0000a2
:1039a800534f0000465400005f520000455300008a
:1039b800455400002d4500004e54000052590000a7
:1039c8005f530000530d00000a000000504500003e
:1039d8005f530000524300005f530000454e000053
:1039e800445f0000534f0000465400005f5200003f
:1039f80045530000455400002d4700004f4f00007c
:103a080044430000524300005f5200004543000059
:103a18004549000056450000445f0000535300002c
:103a28000d0a000000500000455f000053520000de
:103a3800435f0000534500004e4400005f53000000
:103a48004f460000545f00005245000053450000f7
:103a5800542d0000534500004e440000455200001c
:103a68005f52000045530000504f00004e530000c5
:103a7800455f0000544900004d450000444f0000d8
:103a8800555400000d0a0000006500005045000074
:103a98005f530000524300005f5300004f46000090
:103aa800545f00005245000053450000542d0000ab
:103ab800454e000054520000595f00005353000067
:103ac8000d0a000000500000455f0000535200003e
:103ad800435f0000564400004d5f00004944000069
:103ae800454e000054490000545900005f52000040
:103af8004551000055450000535400002d45000075
:103b08004e540000525900005f530000530d00004e
:103b18000a000000504500005f53000052430000b7
:103b28005f560000444d00005f4900004445000016
:103b38004e54000049540000595f000052450000ef
:103b48005155000045530000542d0000474f000018
:103b58004f44000043520000435f000053530000ed
:103b68000d0a000000500000455f0000535200009d
:103b7800435f0000564400004d5f000049440000c8
:103b8800454e000054490000545900005f410000b0
:103b9800434b0000454400000d0a0000005000009f
:103ba800455f000053520000435f00005644000088
:103bb8004d5f000049440000454e00005449000094
:103bc800545900005f4e0000414b0000454400007e
:103bd8000d0a00000000000050570000525f00006e
:103be800494e0000543a000020560000425500009b
:103bf800535f00004d41000054430000485f00003f
:103c0800564c0000440d00000a0000005642000017
:103c1800555300005f4900004e5400003a20000050
:103c28004558000049540000205600004255000045
:103c3800535f00004d41000054430000485f0000fe
:103c480043480000470d00000a00000054590000d6
:103c580050450000433a000020560000434f000042
:103c68004e4e000020440000495300004348000025
:103c78004152000047450000206900006e690000bd
:103c88007469000061740000656400000d0a00009a
:103c98000054000059500000454300003a2000003d
:103ca800564300004f4e00004e200000456e0000b5
:103cb800616200006c65000064200000696e00000d
:103cc80020430000433100000d0a000000540000aa
:103cd80059500000454300003a20000056430000b8
:103ce8004f4e00004e200000456e0000616200004b
:103cf8006c65000064200000696e0000204300002d
:103d0800433200000d0a0000005400005950000022
:103d1800454300003a2000004f6e00006c79000017
:103d2800205000006f770000657200006564000095
:103d380020430000616200006c65000020690000fb
:103d4800732000005072000065730000656e00006b
:103d580074200000696e000020430000430000004a
:103d68000d0a0000005400005950000045430000af
:103d78003a2000004f6e00006c79000020530000cc
:103d8800696e00006b20000069730000205000007d
:103d980072650000736500006e7400002069000001
:103da8006e200000434300000054000059500000fa
:103db800454300003a200000536900006e6b000084
:103dc8002069000073200000507200006573000035
:103dd800656e000074200000696e0000204300003a
:103de800430000005459000050450000433a0000c9
:103df800205000006f7700006572000065640000c5
:103e080020430000616200006c650000206900002a
:103e1800732000005065000072730000656e00009a
:103e280074200000696e0000204300004300000079
:103e38005459000050450000433a0000204100005a
:103e480055440000494f0000204100004343000052
:103e580045530000534f00005259000020690000ec
:103e6800732000007072000065730000656e00002a
:103e7800740d00000a00000054590000504500006d
:103e8800433a0000204e00006f2000004465000007
:103e9800766900006365000073200000617200000d
:103ea800652000007072000065730000656e0000f8
:103eb800740d00000a00000054590000504500002d
:103ec800433a0000204400004542000055470000e6
:103ed800204100004343000045530000534f0000b9
:103ee8005259000020690000732000007072000021
:103ef80065730000656e0000740d00000a00000084
:103f08005459000050450000433a00002056000074
:103f1800434f00004e4e000020440000495300006b
:103f2800434800004152000047450000204300007c
:103f38004f4d0000504c000045540000454400001f
:103f48000d0a0000005400005950000045430000cd
:103f58003a2000005459000050450000433a000040
:103f68002043000043310000207200006567000014
:103f78006973000074650000720d00000a000000fb
:103f88005459000050450000433a000020540000f6
:103f980059500000454300003a2000004343000008
:103fa8003220000072650000676900007374000029
:103fb800657200000d0a000000540000595000000e
:103fc800454300003a200000436800006563000094
:103fd8006b2000005270000020560000616c000049
:103fe8007565000020410000504900002063000072
:103ff800616c00006c6500006420000066720000bf
:104008006f6d000020500000524c00000d0a0000a7
:1040180000560000434f00004e4e00005f4f000066
:104028004e5f000045520000524f0000523a000017
:10403800204500006e740000657200006564000091
:104048002053000052430000205000006f7700000a
:104058006572000065640000204f000046460000bd
:1040680020730000746100007465000000540000b3
:1040780059500000454300003a20000054790000e0
:104088007065000043200000506f0000727400004b
:10409800206900006e690000746900006c69000006
:1040a8007a610000746900006f6e0000204400000f
:1040b8006f6e0000650d00000a00000054590000f2
:1040c80050450000433a00002052000050200000f4
:1040d800566100006c750000652000006f660000e6
:1040e800205300006f750000726300006520000017
:1040f8007365000074200000746f000055730000a1
:10410800657200002067000069760000656e000097
:1041180020560000616c0000756500000d0a000063
:104128000054000059500000454300005f5500004e
:104138004e4100005454000041430000484500002f
:10414800445f000053520000433a0000204500003d
:104158006e74000065720000656400002055000060
:104168004e410000545400004143000048450000ff
:1041780044530000524300002053000074610000c3
:10418800746500000d0a000000540000595000003a
:10419800454300005f4100005454000041430000c3
:1041a8004857000041490000545f00005352000086
:1041b800433a0000204500006e740000657200005c
:1041c8006564000020410000545400004143000091
:1041d8004857000041490000542000005352000095
:1041e800432000005374000061740000650d000056
:1041f8000a00000050440000505700005200000020
:104208005459000050450000435f0000415400002d
:104218005441000043480000454400005f5300003b
:10422800524300003a200000456e0000746500000b
:1042380072650000642000004154000054410000f1
:10424800434800004544000053520000432000004a
:104258005374000061740000650d00000a0000003e
:104268005459000050450000435f000041540000cd
:104278005441000043480000454400005f530000db
:10428800524300005f560000434f00004e4e0000ae
:104298005f430000433100003a200000564300000d
:1042a8004f4e00004e4500006e610000626c000039
:1042b80065640000206900006e2000004343000090
:1042c800310d00000a00000054590000504500005c
:1042d800435f00004154000054410000434800007f
:1042e800454400005f530000524300005f56000041
:1042f800434f00004e4e00005f4300004332000071
:104308003a200000564300004f4e00004e45000082
:104318006e610000626c00006564000020690000a6
:104328006e20000043430000320d00000a00000028
:104338005459000050450000435f0000554e0000ee
:104348004154000054410000434800005f570000fa
:1043580041490000545f000053520000433a0000f6
:10436800204500006e74000065720000656400005e
:10437800205500004e410000545400004143000005
:1043880048450000442000005741000049540000ff
:104398005352000043200000537400006174000071
:1043a800650d00000a000000545900005045000047
:1043b800435f000045520000524f0000525f00006a
:1043c80052450000434f0000564500005259000076
:1043d8003a200000456e0000746500007265000018
:1043e80064450000525200004f5200002052000065
:1043f800454300004f560000455200005920000078
:104408005374000061740000650d00000a0000008c
:10441800370000006d000000b4000000db00000061
:1044280050010000b5010000c6020000340300007e
:10443800504500005f44000041540000415f000007
:10444800524500005155000045530000543a000001
:10445800205300006f7500007263000065200000a3
:104468004361000070610000626900006c6900002f
:1044780074790000206d000065730000736100000e
:104488006765000020720000656300006569000030
:1044980076650000640d00000a0000005045000029
:1044a8005f5300004e4b00005f530000454c000076
:1044b80045430000545f00004341000050410000a4
:1044c800424900004c490000545900003a200000bd
:1044d800416300006365000070740000204d000017
:1044e80073670000205200006563000065690000e2
:1044f80076650000640d00000a00000050450000c9
:104508005f5300004e4b00005f530000454e000013
:10451800445f0000534f0000465400005f52000003
:1045280045530000455400003a2000004163000054
:104538006365000070740000204d00007367000080
:104548002072000065630000656900007665000060
:10455800640d00000a000000504500005f430000a1
:10456800545200004c5f00004143000043450000e6
:10457800505400003a200000536500006e640000ab
:104588006572000052650000737000006f6e0000d5
:104598007365000020540000696d0000657200001a
:1045a800204b0000696c00006c650000640d000081
:1045b8000a000000504500005f430000545200000c
:1045c8004c5f000047450000545f0000534f000057
:1045d80055520000434500005f4300004150000071
:1045e8003a2000004765000074200000536f000067
:1045f80075720000636500002043000061700000d0
:1046080020520000656300006569000076650000bf
:10461800640d00000a000000504500005f530000d0
:10462800454e0000445f00004e4f0000545f0000fc
:1046380053550000505000004f52000054450000f0
:10464800443a0000204500006e74000065720000c6
:104658007465000064200000746800006520000094
:104668007374000061740000650d00000a0000000a
:1046780065500000455f0000534500004e440000af
:104688005f520000454a000045430000543a0000cc
:10469800204500006e74000065720000746500001b
:1046a8006420000074680000652000007374000036
:1046b80061740000650d00000a000000504500000c
:1046c8005f52000045530000505f00005644000050
:1046d8004d5f000047450000545f0000494400005a
:1046e800454e000054490000545900003a2000008b
:1046f800456e0000746500007265000064200000cb
:104708007468000065200000737400006174000084
:10471800650d00000a000000202500006c64000000
:104728002000000044720000697600006520000047
:1047380056420000555300003a200000496e000020
:10474800766100006c69000064200000506f000072
:1047580072740000204e0000756d00006265000054
:10476800720d00000a000000447200006976000023
:104778006520000056420000555300003a20000012
:10478800305600000d0a0000004400007269000065
:10479800766500002056000042550000533a00009c
:1047a80020350000560d00000a0000004472000089
:1047b800697600006520000056420000555300004d
:1047c8003a200000395600000d0a0000004400009d
:1047d800726900007665000020560000425500000e
:1047e800533a000020310000355600000d0a000041
:1047f8000044000072690000766500002056000041
:1048080042550000533a00002032000030560000a4
:104818000d0a00000044000072690000766500007f
:104828002056000042550000533a0000204900007d
:104838006e760000616c000069640000205600007c
:104848006f6c000074610000676500002053000071
:10485800656c000065630000746900006f6e0000fd
:104868000d0a00000020000030780000253000000c
:104878003258000020000000203000007825000099
:10488800303400005820000000200000307800007c
:1048980025300000386c000058200000000000009f
:1048a800445000004d2d0000504500003a20000003
:1048b80052650000717500006573000074650000a2
:1048c800642000006973000020560000616c00003d
:1048d80069640000200d00000a0000005643000033
:1048e8004f4e00004e5f00004f4e00005f45000035
:1048f800525200004f5200003a200000456e00005e
:1049080074650000726500006420000053520000c6
:1049180043200000506f00007765000072650000ba
:10492800642000004f460000462000007374000019
:104938006174000065000000564300004f4e0000ff
:104948004e5f00004f4e00005f45000052520000cd
:104958004f5200003a200000456e000074650000c8
:104968007265000064200000534e00004b200000d8
:10497800506f000077650000726500006420000039
:104988004f46000046200000737400006174000068
:10499800650000006e0000006d0000006c00000063
:020000040000fa
:1049a80092c0b3000440bc00703923000170790044
:1049b80061c0b30065004000017178000000060086
:1049c8000080fb006902b9006400420063392300db
:1049d800634378000301e800e2437800e1cf500028
:1049e8001c0032000a003900e2cf500022003200d9
:1049f800e3cf50000e0032000400780080814100af
:104a0800c641980000004100474098000000060099
:104a180056c9b3000400780080814100c64198005f
:104a2800000041004740980000000600f8ff3700ea
:104a380007c4b30086c4b300040078008081410035
:104a4800c641980000004100474098000000060059
:104a5800efff370007c2b30016c2b30004007800a6
:104a680080814100c64198000000410047409800fd
:104a780000000600e6ff370007c2b30026c2b300f5
:104a88000400780080814100c64198000000410080
:104a98004740980000000600ddff3700f287470016
:104aa800889fbe008a9fbe008c9fbe008e1f780024
:104ab80000447800010778008885fb006958b90030
:104ac800d0b79f00e1b79f00dfb097006880400033
:104ad80069392300694578000e08a3004a003a00a6
:104ae8000ea8a30036003a000e98a3002b0032004f
:104af8000886fb008006eb00130020007e8157002b
:104b08008180200008407800768a020000000000ba
:104b1800afe097000041eb000104e0005e003200c6
:104b2800e1cf500072003200e5cf5000880032001b
:104b3800e14f5100070032000148a30005003a0088
:104b4800edcf5000a9003200d0c2b30080cf500092
:104b5800a6003200130020007e81570091802000bb
:104b680008407800768a0200000000001300200048
:104b78007e81570091802000084078003c8a02001e
:104b8800000000000c00be0044c802000000000045
:104b9800a0e02900f0c7020000000000dfb1970084
:104ba800838444008a4c98004f0778004f06be0063
:104bb8004f05be004f04be002f01b10000000600e3
:104bc800130020007e815700a18020000840780053
:104bd800768a0200000000002fe197000204e0003e
:104be800fa003500130020007e815700a1802000c4
:104bf800084078003c8a0200000000000e98a300dc
:104c0800bbff3a00e5ff3700130020007e81570004
:104c18003180200008407800768a020000000000f9
:104c28002fe097000004e000d70035006300600023
:104c3800b9003a007c8657000a14a000230020001f
:104c48000c0178006180200008407800768a020014
:104c5800000000002002200000d8b900a2ff2200b6
:104c68006200780067006000e10f5000b800320071
:104c7800afb097005fb097000081440021419800d1
:104c8800c808de0092392300017079000ea8a3003d
:104c980095ff3200caff3700f0c8b3000045650031
:104ca800824078000840780036c702000000000003
:104cb8002002200000d8b900a2ff2200620078007c
:104cc80067006000e10f50008c0032005fb297006f
:104cd800efb2970069407a00e74f5000b200320007
:104ce800afe097000041eb00e1cf50008eff3a00a3
:104cf8002402200004dab900a0ff220060007a0034
:104d080067006000e10f500092ff32005fb2970029
:104d1800efb2970069407a00e74f500084ff3a00ed
:104d280008407800f1b79f0082bf9f0030b60200ac
:104d380000000000ffb097000fb997000004e000e2
:104d4800cf003200afe09700e5cf500078ff3a007f
:104d58002402200004dab900a0ff220060007a00d3
:104d6800670060007bff3a005fb09700e8014000f1
:104d7800e9c179000307b200f08f51006cff3200df
:104d880063392300e3417800e7cf510071ff3a000f
:104d98007339230063407800e14f500064ff3a0004
:104da800130020007e815700918020000840780081
:104db800768a020000000000130020007e81570060
:104dc80091802000084078003c8a02000000000022
:104dd8000c00be0044c8020000000000a0e029004a
:104de800f0c70200000000006cff3700f0c8b300f5
:104df80000456500230020007c815700218b20009e
:104e080008407800768a0200000000002fb0970062
:104e18008000eb00a009020000000000e27a2400f4
:104e2800331c24004a0a0200000000006a0902003c
:104e380000000000a0b79f008000eb00a00902005e
:104e480000000000b0b79f00c1b79f000200270014
:104e58004359240066090200000000000000e00039
:104e68004700340002802900536024003fb09700b7
:104e7800cfb0970066090200000000000000e000c3
:104e88006b003c000a54a0006e58b900cba9220060
:104e9800808545001b4090000008a3002dff3200cc
:104ea8008040eb000840780036c702000000000090
:104eb800130020007e815700918020000840780070
:104ec800768a020000000000130020007e8157004f
:104ed80091802000084078003c8a02000000000011
:104ee8000c00be0044c8020000000000a0e0290039
:104ef800f0c702000000000028ff37000e98a3004a
:104f080077ff3200afe0970012c0b300e1cf500046
:104f180005ff3a0076ff37007c8657002300200003
:104f28000c0178004180200008407800768a020051
:104f380000000000230020000c01780041802000c0
:104f4800084078003c8a0200000000003aff370061
:104f58002fb09700dfb09700018144000281e8007c
:104f680000c9ea0092392300828040004800de0030
:104f780080c8ea000ea8a300dbfe320010ff37004d
:104f88000a44a000c0ff3700130020007e815700ac
:104f980031802000084078003c8a020000000000b0
:104fa8002fe0970021ff37000840780030b6020054
:104fb800000000000004e00049ff3a000a04a000d5
:104fc800afe097000041eb0047ff37000886fb0081
:104fd8008006eb000c00be0044c802000000000080
:104fe80000df2900f0c702000000000013002000c5
:104ff8007e815700a1802000084078003c8a02008a
:1050080000000000130020007e81570081802000ee
:1050180008407800768a020000000000afe09700a0
:105028000041eb000104e000bdfe3a001aff370022
:1050380002802a00e36524003fb09700cfb09700b4
:1050480066090200000000000000e00002003c00c9
:105058000a43b3008cff370002002700436924008d
:105068003fb09700cfb0970066090200000000002b
:105078000000e00084ff3c000a64a00082ff3700c3
:105088000a04a0000840780082bf9f0036c70200cb
:1050980000000000afe097000fb99700e5cf50007f
:1050a800a3fe3a002aff37000200fa00889fbe00dc
:1050b8008a9fbe00004478008144780013002000d5
:1050c8006a8157001182200008407800f4890200a4
:1050d80000000000f0c9b300eff0970000c06000c6
:1050e80000c07400e0f79f00130020006a81570099
:1050f8001182200008407800b089020000000000fa
:105108006055b8000904e00002003a002a002000b7
:105118000b002000130020006a8157001180200036
:1051280008407800f489020000000000eff09700c2
:105138000180fb00620060008000eb008a0f5000d5
:105148008b8f5800f3ff32004f05be004f04be009e
:105158000080fa00000006000200fa00881f7800ac
:105168008a9fbe00004478000104e00018003a005d
:1051780012c0b30001842000084078003089020082
:10518800000000000a0820000b0020001300200087
:10519800688157000184200008407800f4890200e3
:1051a800000000008ff897000180fb000008b200a3
:1051b8008000eb00800f5500818f5d00f3ff320007
:1051c8004f05be004f0478000080fa00000006007a
:1051d80012c0b3000184200008407800b2880200a1
:1051e800000000006055b8001300200068815700d7
:1051f8000184200008407800f489020000000000c3
:105208008ff897000180fb000008b2008000eb00d7
:10521800800f5500818f5d00dcff3200e8ff37000a
:10522800889fbe008a1f7800004478008184fb00b4
:105238000908a30020003a000918a30003003a0057
:105248004f0578004f04be000000060008407800b3
:1052580092c0b3000440bc00a03923008004410080
:105268001300200009017800b1812000084078006f
:10527800b089020000000000130020000901780036
:105288003181200008407800b08902000000000049
:105298001300200009017800e1812000084078000f
:1052a800b0890200000000004f0578004f04be00de
:1052b80000000600e5ff370092c0b3000440bc00c0
:1052c800a039230000054100130020000a017800de
:1052d800a181200008407800b08902000000000089
:1052e800130020000a01780021812000084078007e
:1052f800b089020000000000130020000a017800b5
:10530800d181200008407800b08902000000000028
:105318000918a300caff3200ccff37000200fa00c8
:10532800889fbe008a1f7800004478008144780076
:105338000245780023002000688157000182200080
:1053480008407800f489020000000000000c2f00db
:10535800cfb8970000806000c0bf9f000904e0003c
:105368001e003200e1cf54000a0032002300200062
:10537800688157000182200008407800b089020047
:10538800000000004f0578004f04be000080fa00be
:10539800000006000a85fb00b001b300ca50dd001a
:1053a8004855dd00010575000a057000cabf9f0059
:1053b80023002000688157000182200008407800ff
:1053c800b0890200000000004f0578004f04be00bd
:1053d8000080fa0000000600eeff37000a85fb0097
:1053e800c350dd000105750000057500cabf9f00a8
:1053f80023002000688157000182200008407800bf
:10540800b0890200000000004f0578004f04be007c
:105418000080fa0000000600deff37000104e0000b
:1054280003003200e1cf5000050032000000060002
:1054380042c0b30001802000308904000000000051
:1054480042c0b30001802000b288040000000000c0
:105458000200fa00889fbe008a9fbe0000447800c0
