:020000040000fa
:080000000002040000000000f2
:020000040000fa
:0400080014040000dc
:020000040000fa
:04000c00f0020000fe
:020000040000fa
:0400100002030000e7
:020000040000fa
:04001400f8020000ee
:020000040000fa
:040018000a030000d7
:020000040000fa
:04001c0014040000c8
:020000040000fa
:0400200014040000c4
:020000040000fa
:0400240014040000c0
:020000040000fa
:0400280014040000bc
:020000040000fa
:04002c0014040000b8
:020000040000fa
:0400300014040000b4
:020000040000fa
:0400340012030000b3
:020000040000fa
:0400380014040000ac
:020000040000fa
:04003c0014040000a8
:020000040000fa
:0400400014040000a4
:020000040000fa
:0400440014040000a0
:020000040000fa
:04004800140400009c
:020000040000fa
:04004c001404000098
:020000040000fa
:040050001404000094
:020000040000fa
:04005400c2030000e3
:020000040000fa
:040058006e03000033
:020000040000fa
:04005c00320300006b
:020000040000fa
:040060001404000084
:020000040000fa
:040064001404000080
:020000040000fa
:04006800140400007c
:020000040000fa
:04006c001404000078
:020000040000fa
:040070001404000074
:020000040000fa
:040074001404000070
:020000040000fa
:04007800140400006c
:020000040000fa
:04007c001404000068
:020000040000fa
:040080001404000064
:020000040000fa
:040084001404000060
:020000040000fa
:04008800140400005c
:020000040000fa
:04008c001404000058
:020000040000fa
:040090001404000054
:020000040000fa
:040094001404000050
:020000040000fa
:04009800140400004c
:020000040000fa
:04009c001404000048
:020000040000fa
:0400a0001404000044
:020000040000fa
:0400a4001404000040
:020000040000fa
:0400a800140400003c
:020000040000fa
:0400ac001404000038
:020000040000fa
:0400b0001404000034
:020000040000fa
:0400b4001404000030
:020000040000fa
:0400b800140400002c
:020000040000fa
:0400bc001404000028
:020000040000fa
:0400c0001404000024
:020000040000fa
:0400c4001404000020
:020000040000fa
:0400c800140400001c
:020000040000fa
:0400cc001404000018
:020000040000fa
:0400d0001404000014
:020000040000fa
:0400d4001404000010
:020000040000fa
:0400d800140400000c
:020000040000fa
:0400dc001404000008
:020000040000fa
:0400e0001404000004
:020000040000fa
:0400e4001404000000
:020000040000fa
:0400e80014040000fc
:020000040000fa
:0400ec0014040000f8
:020000040000fa
:0400f00014040000f4
:020000040000fa
:0400f40014040000f0
:020000040000fa
:0400f80014040000ec
:020000040000fa
:0400fc0014040000e8
:020000040000fa
:0401000014040000e3
:020000040000fa
:0401040014040000df
:020000040000fa
:0401080014040000db
:020000040000fa
:04010c0014040000d7
:020000040000fa
:0401100014040000d3
:020000040000fa
:0401140014040000cf
:020000040000fa
:0401180014040000cb
:020000040000fa
:04011c0014040000c7
:020000040000fa
:0401200014040000c3
:020000040000fa
:0401240014040000bf
:020000040000fa
:0401280014040000bb
:020000040000fa
:04012c000a040000c1
:020000040000fa
:0401300014040000b3
:020000040000fa
:0401340014040000af
:020000040000fa
:0401380014040000ab
:020000040000fa
:04013c0014040000a7
:020000040000fa
:0401400014040000a3
:020000040000fa
:04014400140400009f
:020000040000fa
:04014800140400009b
:020000040000fa
:0402080014040000da
:020000040000fa
:04020c0014040000d6
:020000040000fa
:0402100014040000d2
:020000040000fa
:0402140014040000ce
:020000040000fa
:0402180014040000ca
:020000040000fa
:04021c0014040000c6
:020000040000fa
:0402200014040000c2
:020000040000fa
:0402240014040000be
:020000040000fa
:0402280014040000ba
:020000040000fa
:04022c0014040000b6
:020000040000fa
:0402300014040000b2
:020000040000fa
:0402340014040000ae
:020000040000fa
:0402380014040000aa
:020000040000fa
:04023c0014040000a6
:020000040000fa
:0402400014040000a2
:020000040000fa
:04024400140400009e
:020000040000fa
:04024800140400009a
:020000040000fa
:04024c001404000096
:020000040000fa
:040250001404000092
:020000040000fa
:04025400140400008e
:020000040000fa
:04025800140400008a
:020000040000fa
:04025c001404000086
:020000040000fa
:040260001404000082
:020000040000fa
:04026400140400007e
:020000040000fa
:04026800140400007a
:020000040000fa
:04026c001404000076
:020000040000fa
:040270001404000072
:020000040000fa
:04027400140400006e
:020000040000fa
:04027800140400006a
:020000040000fa
:04027c001404000066
:020000040000fa
:040280001404000062
:020000040000fa
:04028400140400005e
:020000040000fa
:04028800140400005a
:020000040000fa
:04028c001404000056
:020000040000fa
:040290001404000052
:020000040000fa
:04029400140400004e
:020000040000fa
:04029800140400004a
:020000040000fa
:04029c001404000046
:020000040000fa
:0402a0001404000042
:020000040000fa
:0402a400140400003e
:020000040000fa
:0402a800140400003a
:020000040000fa
:0402ac001404000036
:020000040000fa
:0402b0001404000032
:020000040000fa
:0402b400140400002e
:020000040000fa
:0402b800140400002a
:020000040000fa
:0402bc001404000026
:020000040000fa
:0402c0001404000022
:020000040000fa
:0402c400140400001e
:020000040000fa
:0402c800140400001a
:020000040000fa
:0402cc001404000016
:020000040000fa
:0402d0001404000012
:020000040000fa
:0402d400140400000e
:020000040000fa
:0402d800140400000a
:020000040000fa
:0402dc001404000006
:020000040000fa
:0402e0001404000002
:020000040000fa
:0402e40014040000fe
:020000040000fa
:0402e80014040000fa
:020000040000fa
:0402ec0014040000f6
:020000040000fa
:0402f00014040000f2
:020000040000fa
:0402f40014040000ee
:020000040000fa
:0402f80014040000ea
:020000040000fa
:0402fc0014040000e6
:020000040000fa
:0403000014040000e1
:020000040000fa
:0403040014040000dd
:020000040000fa
:0403080014040000d9
:020000040000fa
:04030c0014040000d5
:020000040000fa
:0403100014040000d1
:020000040000fa
:0403140014040000cd
:020000040000fa
:0403180014040000c9
:020000040000fa
:04031c0014040000c5
:020000040000fa
:0403200014040000c1
:020000040000fa
:0403240014040000bd
:020000040000fa
:0403280014040000b9
:020000040000fa
:04032c0014040000b5
:020000040000fa
:0403300014040000b1
:020000040000fa
:0403340014040000ad
:020000040000fa
:0403380014040000a9
:020000040000fa
:04033c0014040000a5
:020000040000fa
:0403400014040000a1
:020000040000fa
:04034400140400009d
:020000040000fa
:040348001404000099
:020000040000fa
:100400002f8c20000e7f22000e01880000000000cb
:10041000000020000000e000020032000001200087
:100420002002880014000700010107000000e0001e
:1004300003003a00003d21000100200002003700c7
:100440000000200001002000810f70000100320038
:1004500014000700000020000000e000020032004d
:100460000000020000000000221002000000000056
:100470000040da000000fe004440a9000004200013
:100480000000e0000300320000002000a00188000e
:100490004440a800000006008a1f78008b1f7800e7
:1004a0000000060091018800800478000000eb0045
:1004b0001a003700e284440032a0b4009905ba0063
:1004c000e284440032a0b4009906ba00e2844400f9
:1004d00032a0b4000006eb00476fde00fd07b2005b
:1004e000636ce10003003a00ebff07000000eb0043
:1004f0000a003700606ce10004003a00005deb0088
:100500008b05e900fdff3e00040037006168e10053
:10051000010032000086eb000b00070019c7ba008b
:100520001905ba000e04e00003003a000a00e000da
:10053000e0ff3a0000000600fe07b2009e018800be
:100540008a047800f5ff3700395dba008b05e900b1
:100550000c003200295dba008b05e900080032006a
:100560000c00e00003003a00e284440032a0b40032
:10057000f5ff370019ddba008b05e900faff3a00f4
:100580008904e800e184440032a0b40000000600c1
:10059000000000000000000000000000000000005b
:1005a000000000000000000000000000000000004b
:1005b000000000000000000000000000000000003b
:1005c000000000000000000000000000000000002b
:1005d000000000000000000000000000000000001b
:1005e0003600f8008020a9000000eb002f0907006a
:1005f0003600f800280907008040a90010002000fc
:100600002a0907003600f8008060a90020002000b9
:10061000260907003600f8008080a900300020007d
:10062000220907003600f800809fbe00829fbe00ae
:10063000849fbe00869fbe00060707002a28ec00a4
:1006400010c0b30028e8b7008460a9004f03be00c3
:100650004f02be004f01be004f00be003600f90041
:1006600000400600809fbe00829fbe003400f8005c
:1006700000002000a0018800021880004040800097
:100680005140800000004100e08048004040880068
:1006900051408800624080000201e800624088000a
:1006a00003802000830f510007003a000c28ef0060
:1006b00010408800214088000828ef000a28ef0039
:1006c00010c0b30000e8b70085a0a9003400f9000d
:1006d0004f01be004f00be0000400600809fbe00dc
:1006e000821f78000020200021842000110060007b
:1006f000020032009580a9001f0037008580a90004
:10070000f24180000042800011428000c808de00f3
:10071000e1c060000f003700b080fb0021118800ad
:1007200041882000810f500002003a0000fe2f0097
:1007300001004000820f500005003a00004288008e
:10074000104280000080a1000090a0000900370046
:100750008040eb002322ab00efff32000042880014
:10076000e1806000c808dd00104280000080a10028
:1007700000807000104288004f0178004f00be00da
:1007800000400600809fbe00821f7800e24180008a
:10079000d0418000114280008100d100e1c06000a2
:1007a0000f00370031118000015878004186200089
:1007b000810f500002003a0000fe2f0001004000af
:1007c000820f500005003a00d0418800104280009e
:1007d0000010a1000000a000090037008040eb00dd
:1007e0002202ab00efff3a00d04188006180600038
:1007f00080004000104280000010a10000807000c6
:10080000104288008560a9004f0178004f00be00ab
:10081000004006002222ab00010032002222a90083
:100820008c20a900004006000040da000000fe0015
:100830000000050003f0a200889fbe008a9fbe0052
:100840008c1f7800f3000700fa0033006450e100c9
:100850004f0032006420e1005200320003826c003d
:1008600007003b000905d0000306d000820f5400aa
:100870000c065d0002003900020032008901780098
:10088000030678008582550004003d000003fd004a
:100890008103fd008502ea008b854200840f72000f
:1008a00002003b0060001000e08018006011b800fa
:1008b0000005eb007a28e1000a0039000600780004
:1008c000c75ddd00f707b200878075002d00370097
:1008d000828171000a017800610560008180d10089
:1008e0000080d3008502e900f9ff3b0006044000c8
:1008f0008784480002003b0060041400e0841c0070
:100900000988a300070032008a817100828171008a
:10091000610164008904d1000884d3008b05e800dc
:10092000170037000978a30013003a000b00e0001d
:10093000130034008b05e9000804440089844c004e
:100940000a4474000978a3000d003a000b00e0008f
:10095000070034008b05e9000804440089844c003a
:1009600001003a000b0020000978a300f7ff3200d5
:100970000001eb0002003700828171000a0178005b
:10098000690007000cf0a70001f0a000b2003700da
:100990006420e10002003a00838f6c00b200330053
:1009a0000801be000200be00ab003700889fbe00f9
:1009b0008a9fbe008c1f7800960007009d003300c0
:1009c00003866c006450e1002e0032006420e100d8
:1009d000330032006150e1002f0032006120e1005d
:1009e0003100320085855500eb07b000090020007a
:1009f00008042000050037000804440089844c00e6
:100a00000a0031000603430087834b0000015300b6
:100a100081815b00f8ff33000203be000800a000e4
:100a20000804440089844c00f6ff3900c639dd0013
:100a30008301730001003200130020008904d100fb
:100a40000884d3000998a300050032000800a7001d
:100a50000300a0008904d1000884d3008b05e800be
:100a60008904d1000884d3000001eb000281d20088
:100a70002d00070001f0a1000cf0a70001f0a0007c
:100a8000750037006420e100770032000801be00e5
:100a90000200be00f7ff37006120e1007200320063
:100aa0006000b800f3ff37000000200001f82700c5
:100ab000f0ff37000001be00410007000470a700ee
:100ac00003f0a10003f8a30013003a006509b10088
:100ad00010003200090035006928e10002003500ed
:100ae000010028000000050000004000818048004f
:100af0008502e900fcff3a0000000600f88f420082
:100b0000050035008100d1000080d3008502e80097
:100b1000fcff3a00000006008000eb00000005002a
:100b20006011b80087003700810020006180550007
:100b30000b003d000b00200061fe2f000100e100d2
:100b40001d00340082817100610164008904d100bc
:100b50000884d3000000e800faff3a00710020008a
:100b600061006400030070000200600009003200b0
:100b700061044400e0844c000988a50005003200af
:100b80008b05e8006808e10002003a008904d10002
:100b90000884d300f20f20000258e10005003d0058
:100ba000c75ddd00f907b200898075000800780094
:100bb000000006000bf827008b00780000000500fd
:100bc000c70ade00f107b200f50fb20008003200dc
:100bd000e1cf4200020032000170a00024000500b5
:100be000810f700001003200040805004400050078
:100bf000810f700002003a00140005008502e90030
:100c00000000400081c04800fcff3b000170a000d4
:100c1000240005000004be00e9ff07000003be0039
:100c20000405be000200be00e5ff0700844f75000a
:100c3000000006000200be006450e100050036001e
:100c40006420e100020036000968a30001003a00b8
:100c50000800be000160a0004f0678004f05be00ee
:100c60004f04be0000000600f0ff2f00f1ff270038
:100c7000f9ff3700889fbe008a9fbe008c1f780056
:100c8000e4ff0700ebff330003866c006450e100d3
:100c9000240032006420e100270032006150e100ae
:100ca000220032006120e100210032008b854200e9
:100cb000eb07b1000134b800003ab8000804420064
:100cc00089844a00013ab8000030b80088804000aa
:100cd00009014a0004003300000040008180480000
:100ce000020149008b05e900c909dd00830170009c
:100cf0000100320013002000c814de004814dd009b
:100d00004709de001200b200c808de000884700047
:100d100085ff070001f0a1000cf0a70001f0a00082
:100d2000cdff37006120e100cfff32000801be0097
:100d30000200be00f7ff37006150e100fcff3a00ff
:100d4000c9ff3700889fbe008a9fbe0000827000e6
:100d50000402710004827100260032000004be000b
:100d60000200be006011b8006b092000950220004f
:100d70000182cf000a0039000541b1000082cf0096
:100d8000070039000541b1000982cf000400390095
:100d90000541b1000882cf00010039000541b100d2
:100da00005425200120032000a003b0082817100ad
:100db000610164008100d1000080d3008984d300e8
:100dc0000884d3008b05e8000442e800f7ff3a00ee
:100dd000070037000804440089844c0000004800e4
:100de000818048008b05e9000442e900f9ff3a00e0
:100df0004dff07004f05be004f04be000000060077
:020000040000fa
:100e000084070000c207000002080000420800003a
:100e100080080000c0080000000900004009000030
:100e20007c090000b8090000000100000307000071
:100e300001030000010000000101000000000000ab
:100e40000000000002040000060000000002000094
:100e5000d402000008000000d402000010000000ce
:100e6000d402000020000000cc02000010000000ae
:100e7000c402000010000000c402000000020000d4
:020000040000fa
:100e80000080fb000008a30002003200d402a8008a
:100e900001003700d402a9000018a30002003200ac
:100ea000d422a80001003700d422a9000028a30002
:100eb00002003200d442a80000000600d442a9007b
:100ec000000006000080fb000008a30002003200c2
:100ed000c4e2a80001003700c4e2a9000018a30082
:100ee00002003200cdc2a80001003700cdc2a90027
:100ef0000028a30002003200cde2a8000000060096
:100f0000cde2a900000006006101b80061015100b6
:100f1000e0815900e40f5100e08f590018003e00b5
:100f2000026001001100370003003700080037009d
:100f3000010037000600370010c0b3008048780079
:100f40000040eb0090409800207c20000500370016
:100f500010c0b3008048780020c0b30090409800d3
:100f60000088200090009800000006008048eb00f8
:100f70000040eb0090409800009420009000980002
:100f8000000006006101b80061015100e0815900d4
:100f9000e40f5100e08f590019003e00026001008b
:100fa0001100370003003700080037000100370048
:100fb0000600370030c0b300804878000040eb00e6
:100fc00090409800208020000500370010c0b3003a
:100fd0008048780020c0b30090409800008820002e
:100fe000900098000000060010c0b3008048780010
:100ff0000040eb0090409800c097200090009800bf
:10100000000006006101b80061015100e081590053
:10101000e40f5100e08f590019003e00026001000a
:1010200011003700030037000800370001003700c7
:101030000600370070c0b300804878000040eb0025
:1010400090409800208420000500370030c0b30095
:101050008048780040c0b30090409800008c200089
:10106000900098000000060010c0b300804878008f
:101070000040eb0090409800c0972000900098003e
:10108000000006006101b80061015100e0815900d3
:10109000e40f5100e08f590018003e00026001008b
:1010a0001000370003003700070037000100370049
:1010b000050037008048eb000040eb0090409800ae
:1010c000407820000500370010c0b3008048780049
:1010d00060c0b300904098000090200090009800fd
:1010e0000000060010c0b300804878000040eb000c
:1010f00090409800c09720009000980000000600e3
:101100006101b80061015100e0815900e40f510014
:10111000e08f590019003e00026001001100370005
:1011200003003700080037000100370006003700d1
:1011300030c0b3008048780040c0b30090409800b1
:10114000008c20000500370010c0b30080487800f4
:101150000040eb0090409800207c20009000980018
:101160000000060010c0b3008048780020c0b30023
:1011700090409800809b200090009800000006009e
:101180006101b80061015100e0815900e40f510094
:10119000e08f590019003e00026001001100370085
:1011a0000300370008003700010037000600370051
:1011b00010c0b3008048780060c0b3009040980031
:1011c000009020000500370030c0b3008048780050
:1011d0000040eb0090409800208020009000980094
:1011e0000000060010c0b3008048780020c0b300a3
:1011f00090409800809b200090009800000006001e
:101200006101b80061015100e0815900e40f510013
:10121000e08f590019003e00026001001100370004
:1012200003003700080037000100370006003700d0
:1012300010c0b3008048780020c0b30090409800f0
:10124000008820000500370070c0b3008048780097
:101250000040eb009040980020842000900098000f
:101260000000060010c0b3008048780020c0b30022
:1012700090409800809b200090009800000006009d
:101280006101b800e50f5100e08f590019003e00e0
:10129000026001001200370016003700030037001b
:1012a00008003700010037000600370010c0b30007
:1012b000804878000040eb0090409800c0972000e4
:1012c0000500370010c0b3008048780020c0b3008c
:1012d00090409800809b200090009800000006003d
:1012e0008048eb000040eb009040980040782000e0
:1012f00090009800000006006101b800e50f510061
:10130000e08f590019003e00026001001100370013
:1013100016003700030037000700370001003700d0
:10132000050037008048eb000040eb00904098003b
:10133000009420000500370010c0b30080487800fa
:1013400020c0b30090409800809b2000900098003f
:101350000000060010c0b300804878000040eb0099
:1013600090409800207c200090009800000006002b
:10137000e30f500005003200e50f5000030032007b
:101380000000e000070032000000060010c0b300bb
:10139000804878000040eb0090409800c097200003
:1013a0000500370010c0b3008048780020c0b300ab
:1013b00090409800008820009000980000000600ef
:1013c000ff3ffc00000006000000fc0000000600db
:1013d00011c8bf000008a300030032000040eb006a
:1013e000fb0007000800370010c8bf000008a3007a
:1013f000030032000040eb00dd0007000200370070
:101400000040eb00e600070011c8bf000018a30071
:101410000300320030c0b300ed00070008003700c1
:1014200010c8bf000018a3000300320030c0b30092
:10143000cf0007000200370030c0b300d80007001b
:1014400011c8bf000028a3000300320060c0b30031
:10145000df0007000800370010c8bf000028a30005
:101460000300320060c0b300c10007000200370073
:1014700060c0b300ca00070015c8bf000008a30081
:101480000300320010c0b300d1000700080037008d
:1014900014c8bf000008a3000300320010c0b3004e
:1014a000b30007000200370010c0b300bc00070003
:1014b00015c8bf000018a3000300320040c0b300ed
:1014c000c30007000800370014c8bf000018a300bd
:1014d0000300320040c0b300a5000700020037003f
:1014e00040c0b300ae00070015c8bf000028a3002d
:1014f0000200320070c0b300b500370014c8bf004e
:101500000028a3000200320070c0b300980037002a
:1015100070c0b300a2003700a9ff07001068ef00f9
:101520001168ef004078200090408800d402a900a4
:10153000d422a900d442a9001468ef001568ef0076
:10154000b0408800c4e2a900cdc2a900cde2a90044
:101550009dff07009eff37001848e2000c00320094
:1015600010c8bf00118120009140780000c07000b9
:1015700043fe070014c8bf0051812000914078004d
:1015800000c070004ffe07001868ef000000060062
:10159000018120009140780011c8bf0000c0ea001e
:1015a0000140600036fe0700418120009140780034
:1015b00015c8bf0000c0ea000140600041fe0700fe
:1015c00010c0b30018e8b70000000600881f7800bc
:1015d0007bff0700088120001844780011c8bf0075
:1015e000670060004400dd00670464004181200062
:1015f00091407800e7806000c808dd0008047000b2
:1016000015c8bf00670060004c00dd000884700052
:10161000080470006cff0700080078004f04780091
:1016200000000600881f780000047800e50f5400d1
:101630001b003e00100020000800dd008000780044
:101640000103b20010003a00ec00600009003a000b
:10165000630060001200320059ff07000181200082
:1016600008007800924080000200010056ff070049
:101670000500370052ff07000181200008007800b4
:1016800092408000040037004dff07004181200098
:1016900008007800b2408000020001004aff070005
:1016a0004bff07004f04780000000600ff3ffc00de
:1016b000000006000000fc00000006000200fa0026
:1016c000faff07000040eb001c0037000040eb0071
:1016d000140037006ff89700fff8970032c0b3008e
:1016e0000440bc008180fb00810041000041eb0010
:1016f000408a200002f07800eff897000180fb009c
:101700007ff997000281fb006300b90000004100ef
:10171000d18a2000008040000048eb007ff897004d
:101720000040e800f0ff9f007ff89700e24f500074
:10173000e8ff36006ff897000040e800e0ff9f00e8
:10174000eff89700e2cf5000e0ff3600c882a90012
:10175000c082a900c122a900d062a900d082a9003c
:10176000d0a2a900d3ff07000080fa000000060005
:10177000881f780000447800e84f540006003e00bf
:10178000caff07000884fb0011c0b300408a200094
:1017900001707c00c7ff07004f04780000000600be
:1017a000881f780000447800e84f540006003e008f
:1017b000beff07000884fb008040eb00408a200049
:1017c00001707c00bbff07004f047800000006009a
:1017d000881f780000447800e84f540006003e005f
:1017e000b2ff07000884fb0021c0b300408a20003c
:1017f00001707c00afff07004f0478000000060076
:101800000200fa000040eb00e0ff9f000f003700ed
:10181000eff897000180fb004200dd008172280094
:1018200061007800eff997000381fb004211dd00b1
:101830000281e800e10079008180ea001088600000
:101840006ffa97000442e800e4ff9f006ff89700ea
:10185000e24f5000eeff36002ec8bf008081fb0033
:10186000c219dd0042732800e28079008381e8001c
:1018700062817900910871000040e8002ee8b7000d
:10188000e24f5000010036002e68ef008040eb0070
:10189000e1ff9f00e2822000124178000281fb00fc
:1018a000230037006ffa97008481fb006310b900b2
:1018b00000804100d18a2000614078000004e000ef
:1018c0000c003200eff897000180fb004200dd00c1
:1018d00081722800610078006ffa97008481fb0014
:1018e000c219dd008381e800e18079001088700072
:1018f0000c003700eff897000180fb004200dd008c
:1019000081722800610078006ffa97008481fb00e3
:10191000c219dd008381e800e18079008180ea005e
:10192000108860006ff897000040e800e0ff9f001b
:10193000eff89700e2cf5000daff3600e282200095
:10194000124178000281fb004211dd004173280042
:10195000610079000281e800e10079008180ea00fd
:10196000108860000080fa00000006000200fa0003
:101970000040eb00e0ff9f00c18220009140780012
:10198000330037000040eb002a0037006ff8970063
:10199000fff9970032c0b3000440bc008381fb0014
:1019a00083014100408a200060c07900e14f50006f
:1019b00003003200e24f500013003a0009003700e4
:1019c000eff997000381fb007ffa97000482fb0088
:1019d0006311b90002014200d38a200080717900ae
:1019e000120037006ff897000081fb007ffa970024
:1019f0000482fb006311b90002004200d28a200079
:101a00000171780009003700eff997000381fb00ae
:101a10007ffa97000482fb006311b90002004200c4
:101a2000d28a2000000041000048eb007ff89700b8
:101a30000040e800f0ff9f007ff89700e24f500061
:101a4000d2ff36006ff897000040e800e0ff9f00eb
:101a5000eff99700e2cf5100caff36002d48e200af
:101a600003003a0090c1b3002de8b7002c08aa008b
:101a70002d68ed000080fa0000000600e14f5000e4
:101a80000600320008003900e24f50000c0032001e
:101a9000e34f50000e003a00060037009016800019
:101aa0004700de0008003700901680004600de0088
:101ab00005003700901680004800de000200370065
:101ac000901680004900de006140600000000600c2
:101ad00000000500e14f5000060032000b00390005
:101ae000e24f500015003200e34f500018003a005a
:101af0000c003700cd62a900003220000100200058
:101b0000d7030700cd62a80000000600cd42a9005f
:101b10000032200001002000d1030700cd42a800c0
:101b200000000600cda2a900003220000100200024
:101b3000cb030700cda2a80000000600cd82a900bb
:101b40000032200001002000c5030700cd82a8005c
:101b500000000600ff3ffc00000006000000fc0043
:101b6000000006000200fa00faff07000040eb0048
:101b70000d003700eff897000180fb000041eb00fb
:101b8000e18b200082707800eff897000180fb0065
:101b900000004000a1812000008040000008eb0010
:101ba0006ff897000040e800e0ff9f00eff8970013
:101bb000e3cf5000efff3600d0e2a800d0c2a8006b
:101bc000d122a800c922a800cd62a800cd42a80059
:101bd000cda2a800cd82a800c942a900c962a9006f
:101be000c982a900c9a2a900dcff07000080fa0091
:101bf000000006000200fa000040eb00e0ff9f003a
:101c000011003700d3ff07007ff897000080fb002a
:101c1000e18b2000614078000004e0000700320002
:101c2000eff897007ff897000080fb00120020007b
:101c30000010dd0000c07000e0ff9f00c7ff07003c
:101c40007ff897000040e800f0ff9f007ff89700c2
:101c5000e34f5000ebff3600eff897000180fb00e8
:101c60000008a3000300320020c0b300d8fe070024
:101c700009003700eff897000180fb000018a3006f
:101c80000300320020c0b300b9fe07000200370095
:101c900020c0b300c2fe0700eff897000180fb00f0
:101ca0000028a3000300320050c0b300c8fe0700a4
:101cb00009003700eff897000180fb000038a3000f
:101cc0000300320050c0b300a9fe07000200370035
:101cd00050c0b300b2fe07006ff897000080fa0012
:101ce000000006000200fa000040eb002a00370066
:101cf0006ff8970061ff07000004e0002000320049
:101d0000a08120006ff997008280fb008180400055
:101d1000e08078000100e0000e0032006ff99700cb
:101d20008280fb0081804000810040009108e90032
:101d30006ff997008280fb0081804000608078000e
:101d40000000e00012003a006ff8970061ff070002
:101d50000f0037006ff997008280fb008180400000
:101d6000820c200002b07800eff897000180fb00a1
:101d700012c0b300e18b20008270780004003700ad
:101d80006ff997008280fb00e28b200000f1780061
:101d90006ff897000040e800e0ff9f00eff8970021
:101da000e3cf5000d2ff36000080fa0000000600aa
:101db00080002000001188002222ef000001200096
:101dc000401188009560a80021e2a8002342a800e5
:101dd0004086200000428800f041880040842000b6
:101de000e0418800d0418800218420001100780063
:101df0002020b300e2ef2f00820860000000060000
:101e0000e141800031407800e141880042862000b5
:101e1000828f500003003a0001fe2f0082804000b4
:101e2000e1418800e2418000a1832000910f510030
:101e300003003a00114280000110a0001142880006
:101e4000114280000100a10011428800000006003c
:101e5000889fbe008a1f7800010578008004780002
:101e60000004eb00070037002084200010007800f9
:101e70006200600005003a00e1ff0700805c780026
:101e80000804e8008a0f5400f7ff390008007800c2
:101e90004f0578004f04be00000006009580a900a1
:101ea000f141800080587800f1418800408820008e
:101eb000808f500002003a000002b100f04188001b
:101ec000104280000090a100104288000242800071
:101ed000e1832000910f510002003a000080a00031
:101ee000104288009580a80000000600889fbe0070
:101ef0008a1f780001057800800478000004eb0058
:101f0000070037000010200021842000110060002d
:101f100005003a00394078000804e800dfff0700b8
:101f20008a0f5400f7ff3900080078004f05780049
:101f30004f04be0000000600114280000000eb00cc
:101f40000188a30001003200800020000198a30056
:101f5000010032000040a0000108a300010032008f
:101f60000000a0000118a300020032000020a00021
:101f7000000006000010a00000000600e241800002
:101f80008000410043862000838f5000050036000a
:101f9000830150000301410040842000604079002b
:101fa0000000060011407800000006002084200098
:101fb00010007800e10060000000eb0008003a002b
:101fc000e0418000d1418000810f500002003600c6
:101fd00001005000000006000002b00001005000a7
:101fe0000000060001102000208420009080600086
:101ff0000000eb0008003a0000428000f141800040
:10200000810f500002003600010050000000060061
:102010000002b000010050000000060010428000e5
:102020000000d10061406000000006001042800006
:102030004800de00614060000000060010118000d2
:10204000000006000a00fa00881f78000040eb003c
:10205000c0f79f006402070098fd0700ab0007006f
:102060002dfd0700bffe07005d0107000a01070004
:1020700000202100a1072000790207006a80570094
:1020800090010700c0bf9f00eff09700a1ff9f00e5
:102090000000eb00cff097000104e00001003a00df
:1020a0004afd0700e0bf9f000040eb00cff0970023
:1020b0000104e00001003a00cefe0700b0ff9f00df
:1020c00066805700f6000700f0f79f007ff097004a
:1020d0000080fb008000eb0061005000e0805800b1
:1020e000e60f5000e08f58002a003e00006001001b
:1020f0000600370007003700090037000a003700e4
:102100000b003700100037001900370020002000b6
:10211000010037004000200042fd07001d0037008d
:1021200030002000fcff370050002000faff37008d
:102130000901070000202100a10720004802070034
:102140005c02070013003700f3fc070010c0b30067
:10215000c0f79f000044eb00084078009cfd07009a
:102160000844e800e94f5400fbff3a00090037003b
:10217000e9fc07000040eb00c0f79f000044780036
:102180000840780086fd07000844e800e94f540045
:10219000fbff3a00cff097000104e000b7ff3a00e0
:1021a0004fb89700e20f500003003a0080c0b30020
:1021b0007bfd07000c0037004fbc9700e10f540077
:1021c00004003a0080c0b30081fd070008007800d9
:1021d000060037004fb89700e30f500004003a00a4
:1021e00080c0b30062fd07000000eb000dfd07009a
:1021f0005a000700d0f79f005ff09700e14f5000b2
:1022000002003a0020002000040037005ff0970031
:10221000e24f500002003a003000200001fd0700ac
:1022200057000700d0f79f005ff09700e14f500084
:1022300002003a0040002000040037005ff09700e1
:10224000e24f50008dff3a0050002000f5fc0700df
:102250008aff370038c8bf000080fb008000eb0019
:10226000e40f5000e08f580010003e0000600100b5
:10227000040037000500370006003700070037006c
:10228000080037005efd0700090037004500070021
:102290000700370093fe070005003700b3fd070075
:1022a00003003700acfc0700010037003868ef007e
:1022b0003848ec0038e8b700e44f50000100360021
:1022c0003868ef00ae0037000004e0000300320081
:1022d000e14f500008003a0003003700101680005c
:1022e0004200de0002003700101680004300de00ce
:1022f000614060000000060010000500ff3ffc0088
:10230000000006000000fc0000000600fbff0700c4
:102310000040eb00618b2000804878008100e800dd
:10232000804878008100e8008048780011c0b30040
:10233000928b2000014978000201e80000497800f2
:102340000201e800004978000201e8000049780035
:102350000200e80001487800eaff3700881f780093
:10236000e6ff0700818b2000114478008048eb00d5
:10237000e4ff0700084078004f04780000000600e2
:10238000881f7800ddff0700c18b20001144780012
:102390008048eb00dbff0700084078004f0478001e
:1023a00000000600881f7800288320001844780069
:1023b00008407800c4ff07000884fb004244dd00a9
:1023c0000881e800718b2000e14179000101e900fa
:1023d000834f500012003a00080141000049eb0011
:1023e0000004e00025003a00e1417c0050c9b30040
:1023f00080cf510021003e00e1417c000880400078
:102400000348e800e1407c0060c9b30080cf500081
:102410001a003a0020c0b30020419800170037008e
:1024200062427c00880141008449e80062417c00ee
:10243000e34f510011003a0008814000204198000c
:102440008049eb000004e00006003200e1407c001f
:1024500050c9b30080cf500002003e0010c0b3004e
:10246000a041980032c8bf000080fb004200dd00a0
:10247000718b2000008040000048eb003248ec00e7
:1024800032e8b700e14f5000010036003268ef003b
:102490004f047800000006002468ef0000000600ea
:1024a0000200fa00881f7800000478000040eb006a
:1024b000d0ff9f003648e2000a003200d7fe070036
:1024c0000004e00013003a004dfe070051c5b300c0
:1024d000814f50000f003a003668ef002268ec0090
:1024e0000c003700b1fe070001c2b30080c05000ed
:1024f000c1ff9f004ff897000004e0000500320084
:10250000110020006380570051fe070010c0b30087
:1025100036e8b7002348e2000300320010c0b300e1
:1025200036e8b7002368ef002448e20006003200d6
:102530002468ef0050c5b30058fe0700410020009a
:102540000800780069fe07005ff897004f047800e4
:102550000080fa00000006002468ef0076fe070005
:102560000048a300fdff320000502300c1002000fe
:102570003b0107002342a90021e2a9000000060058
:1025800022c8bf000900320031c6b300814f50009d
:102590000400360010c0b30023e8b7002268ef0043
:1025a000020037000040e80022e8b7002608ec00ef
:1025b00030418800713e2000810f5000030036003a
:1025c0002628ef0010c0b30024e8b7000000060082
:1025d000ff3ffc00000006000000fc0000000600b9
:1025e000400e280000198800404020001019880083
:1025f00010432100201988002823ef00000120004b
:1026000080198800101980004200de006f406000d1
:102610000ee8b70095a0a800000006002023a8003f
:10262000000006002023a90000000600e38020002f
:10263000934178008381fb00023020008000780005
:102640000000eb00b21878000000e800830f500093
:10265000fcff3400000006000018800000000600a7
:1026600000198000614060000000060040198800e9
:10267000000006000400fa000048e2000e003200ec
:10268000d3ff070010408000214080000068ef0069
:10269000e0bf9f00f1bf9f00cfff07006fb897001a
:1026a000ffb897004509dd004b00de000000710017
:1026b000cb08de0030408800304080000080fa0007
:1026c00000000600881f780000047800e9ff07007a
:1026d0008000eb0012f90700323323003305240099
:1026e00064f907000200200003a8230061f9070035
:1026f0000200200003f023004ef80700a2702d0016
:1027000033c22300a9f80700eaf807003548e200c1
:10271000060032008000eb0052c4b300824f50002c
:102720001b003e003568ef0015003700f1c4b30010
:10273000814f50000500360011c0b30052832000c5
:102740000149780011002000110037003448e200f0
:10275000070032008000eb0062c3b300824f5000dc
:102760000b003e003468ef00210020000800370015
:102770008000eb0072c3b300824f500004003600ab
:1027800011c0b300428320000149780031002000cd
:10279000004c7800010078004f047800000006002b
:020000040000fa
:1027a0008408000020000000000000003008000045
:1027b0000200000002000000ffff000028080000e7
:1027c00004000000000000000008000010000000ed
:1027d000000000003a0800004a000000000000006d
:1027e000a408000012000000000000002c080000f7
:1027f0000400000000000000be080000040000000b
:10280000000000001a08000008000000000000009e
:10281000100800000a00000000000000b6080000d8
:102820000800000000000000320800000200000064
:10283000000000003408000002000000000000005a
:10284000220800000600000000000000360800001a
:102850000200000002000000010000003808000033
:0c2860000200000000000000000000006a
:020000040000fa
:10286c00c422ef000006200060168800d422ef007e
:10287c00f071200000168800f0fb23004016880041
:10288c00803f2000801688006820ef000080260022
:10289c0050038800c622ef00ce22ef00d622ef00b4
:1028ac00c07c200060198800f00b20004207b600a5
:1028bc0062042000730520002174200082487800f7
:1028cc00834878008048780000fe2f002435800073
:1028dc00840060005100b30021358800c606b600a4
:1028ec003000b30030368800103a80000060a00041
:1028fc002174200082487800834878008048780052
:10290c00000006000021ef00007d20001008880068
:10291c0000012800200888008460a9009460a800a9
:10292c002868ef0000000600100888002868ef00f7
:10293c000000060010088000000006000008880057
:10294c002868ef0000000600000880000000060068
:10295c00000006002868ef009460a80005e1a800bc
:10296c000000060005e1a9009460a9000000060023
:10297c0028c8bf00010032002868ef0000000600e4
:10298c0050418000000006002a28ef0000000600dd
:10299c0000002300203a88004827ef001000200098
:1029ac00a20920008107200033742000814978009f
:1029bc00824978008049780072052000610420006b
:1029cc00237420008149780082497800804978007e
:1029dc004207ab00feff3a0000000600a0ff070014
:1029ec00ebff070003000700fafe0700edfc0700f1
:1029fc00c4ff3700f0ff28002105800001016000b2
:102a0c00010023008280700021058800f1f82f005e
:102a1c0053058000038160000260a000520588000d
:102a2c0022068000828060000140a0002106880000
:102a3c0081ff2f0053058000838060000100a000ff
:102a4c0051058800a800b60000d0a0004005880001
:042a5c000000060070
:020000040000fa
:102a6000f03fb1000180b10006003500ee0309001f
:102a700000000000403fb1000180b100fbff3d00bd
:102a80001000b000203fb0000200350000800900b7
:082a9000000000000000060038
:020000040000fa
:102a98004088200080077800780040000001880006
:102aa8000000060080418800ffff37000000fe009c
:082ab8005a15040000000000a3
:020000040000fa
:020000040001f9
:0457f8005ff8000056
:020000040000fa
:020000040001f9
:0457fc007f3f0000eb
:00000001FF
